:100000000C94C9000C94E6000C94E6000C94E600F5
:100010000C94E6000C94E6000C94E6000C94E600C8
:100020000C94E6000C94E6000C94E6000C94E600B8
:100030000C94E6000C9404160C94E6000C94E60074
:100040000C94E6000C94E6000C94E6000C94E60098
:100050000C94E6006E616E00696E660000407A10D6
:10006000F35A00A0724E18090010A5D4E80000E869
:100070007648170000E40B54020000CA9A3B0000C7
:1000800000E1F505000080969800000040420F0056
:100090000000A08601000000102700000000E80317
:1000A000000000006400000000000A0000000000E2
:1000B0000100000000002C76D888DC674F0823DFA1
:1000C000C1DFAE59E1B1B796E5E3E453C63AE65174
:1000D000997696E8E6C28426EB898C9B62ED407C9B
:1000E0006FFCEFBC9C9F40F2BAA56FA5F490055A37
:1000F0002AF75C936B6CF9676DC11BFCE0E40D475C
:10010000FEF520E6B500D0ED902E0300943577057E
:100110000080841E080000204E0A000000C80C3336
:100120003333330F986E12831141EF8D2114893BC5
:10013000E65516CFFEE6DB18D1844B381BF77C1D45
:10014000901DA4BBE424203284725E228100C9F198
:1001500024ECA1E53D274E414E494E495459494EA4
:1001600046CDCCCC3D0AD7233C17B7D13877CC2B22
:10017000329595E6241FB14F0A000020410000C8C7
:100180004200401C4620BCBE4CCA1B0E5AAEC59D48
:10019000740011241FBECFE5D8E0DEBFCDBF12E052
:1001A000A0E6B0E0EAE4FFE502C005900D92A231BE
:1001B000B107D9F722E0A2E1B2E001C01D92A83850
:1001C000B207E1F70E9466150C94A32F0C9400006F
:1001D00040916600382F3170282F2270982F94702C
:1001E00088704423A9F0332311F0DC9A01C0DC9815
:1001F000222311F0DD9A01C0DD98992311F0DE9AD7
:1002000001C0DE98882311F0DF9A0895DF980895E1
:10021000332311F0C49A01C0C498222311F0C59A67
:1002200001C0C598992311F0C69A01C0C6988823C9
:1002300011F0C79A0895C798089590916600882391
:1002400031F0992311F0DA9A0895C29A089599230A
:1002500011F0DA980895C298089590916600882365
:1002600031F0992311F0D99A0895C19A08959923EC
:1002700011F0D9980895C198089590916600882347
:1002800031F0992311F0D89A0895C09A08959923CE
:1002900011F0D8980895C0980895CF93C82F862F4D
:1002A0000E943D0180E00E942D018CEC9CE10197B1
:1002B000F1F700C0000081E00E941D018CEC9CE180
:1002C0000197F1F700C000008C2F82958F700E947B
:1002D000E8008CEC9CE10197F1F700C0000080E0A1
:1002E0000E941D018CEC9CE10197F1F700C0000019
:1002F00081E00E941D018CEC9CE10197F1F700C0A8
:1003000000008C2F8F700E94E80086E69EE0019727
:10031000F1F7000080E00E941D018CEC9CE1019748
:10032000F1F700C00000CF91089580936600882304
:1003300019F08FEF8ABB02C08FEF87BB80916600F8
:10034000882311F01BBA01C018BA60E082E00E9455
:100350004D0160E08CE00E944D0160E081E00E9470
:100360004D0160E086E00E944D012FEF8FE794E0A1
:10037000215080409040E1F700C000000895CF93E5
:10038000DF93EC018991882321F061E00E944D0107
:10039000F9CFDF91CF91089560E081E00C944D0199
:1003A0009B01892B09F0206460E0822F80680C9407
:1003B0004D01EF92FF920F931F93CF93DF93EC01C8
:1003C0008C010F5C1F4F7C018FEDE81A8EEFF80A4D
:1003D000C8010E94E316085D1F4F0E151F05C1F7E7
:1003E000CE018C5B9E4F0E94E31681E08883C65C41
:1003F000DE4F19821882DF91CF911F910F91FF90EC
:10040000EF900895FC018081E45CFE4F811106C0ED
:1004100080819181860F971F0C94422F808191815A
:10042000FC01E60FF71F808108950F931F93CF9370
:10043000DF93EC018B0160E070E080E090E00E94CF
:10044000D0010E94CC0187E690E00E94BF0160E0ED
:1004500070E081E090E00E94D001F801808181117C
:1004600006C0CE018C5B9E4F0E94CD2201C0C80108
:100470000E94BF018881811101C0FFCFDF91CF9120
:100480001F910F910895CF93DF93FC01E25CFE4F23
:10049000608171816F5F7F4F7183608332962081AD
:1004A0003181EC01CE5BDE4F6217730714F01882C6
:1004B00003C00E9402028883DF91CF910895FC015E
:1004C000E25CFE4F608171816F5F7F4F32962081C9
:1004D00031816217730714F40C94020280E00895CE
:1004E0000F931F93CF93DF93EC018C010E5B1E4F94
:1004F000F8018081882349F090E00E94CD2C892B5F
:1005000021F0CE010E944302F3CFDF91CF911F91E2
:100510000F9108956F927F928F929F92AF92BF92A8
:10052000CF92DF92EF92FF920F931F93CF93DF93BF
:10053000CDB7DEB7C556D1090FB6F894DEBF0FBEF2
:10054000CDBF5C016B017E0182E5E80EF11C470125
:100550003B01AEEB6A1AAEEF7A0A84010E191F094D
:10056000F301808190ED980F9A3038F4D4018D9387
:100570004D01C6010E944302F0CFF701E00FF11FC9
:100580008E3259F58083C6010E9443020F5F1F4FD0
:100590000E0D1F1DF801EE19FF09D3018C9190ED8E
:1005A000980F9A3038F4F80181938F01C6010E94A8
:1005B0004302F0CFEE0DFF1D1082CE0102960E9485
:1005C000E3168BE28983C7010E94BB2BAB01BC0100
:1005D000CE018A960E942C170FC01082CE0102967F
:1005E0000E94E31683E28983C7010E94BF2BBC01EE
:1005F000CE018A960E94E41688E2FE01BA96DE01D8
:10060000129601900D928A95E1F789E2FE013196EA
:10061000D50101900D928A95E1F7C501CB59DF4FC5
:100620000FB6F894DEBF0FBECDBFDF91CF911F9103
:100630000F91FF90EF90DF90CF90BF90AF909F9081
:100640008F907F906F9008958F929F92AF92BF92FC
:10065000CF92DF92EF92FF920F931F93CF93DF938E
:10066000CDB7DEB7EC970FB6F894DEBF0FBECDBFA7
:100670007C014B018E01075D1F4F68015B018EEB12
:10068000A81A8EEFB80AF601E01BF10BD5018C9188
:10069000882391F0282F30E0205331092A3031058A
:1006A00020F09FEB980F963038F4F60181936F019C
:1006B000C4010E944302E7CFE00FF11F10826701DF
:1006C000FFEFCF1ADF0AC6010E94E31683E2D701CB
:1006D0008C9340E150E060E070E0C8010E94A52AE0
:1006E000CE0101960E94E41688E2FE013196D60101
:1006F00001900D928A95E1F7C701EC960FB6F89438
:10070000DEBF0FBECDBFDF91CF911F910F91FF9044
:10071000EF90DF90CF90BF90AF909F908F90089513
:100720003F924F925F926F927F928F929F92AF9281
:10073000BF92CF92DF92EF92FF920F931F93CF93CE
:10074000DF93CDB7DEB7C154D1090FB6F894DEBF41
:100750000FBECDBF5C018B016E0189E2C80ED11CBA
:1007600036017B01EEEBEE1AEEEFFE0A8DE0482E2D
:100770009AE0392E29E0522E43018C189D08F7018A
:100780008081882381F1823289F4C8010E945F024E
:10079000823249F5C8010E944302F7018081F301CA
:1007A00081933F01C8010E944302E6CF8C35A9F72F
:1007B000C8010E945F02823751F08E3671F0843793
:1007C00061F7C8010E944302F7015082E6CFC801D9
:1007D0000E944302F7014082E0CFC8010E94430219
:1007E000F7013082DACFC8010E944302F601E80D1A
:1007F000F91D108285010F5F1F4FC8010E94E3168B
:1008000084E2F5018083B601CE0101960E941C1797
:1008100088E2FE013196D80101900D928A95E1F7A8
:10082000C501CF5BDF4F0FB6F894DEBF0FBECDBF63
:10083000DF91CF911F910F91FF90EF90DF90CF90BC
:10084000BF90AF909F908F907F906F905F904F90F0
:100850003F900895CF92DF92EF92FF920F931F93F4
:10086000CF937B018C01F701C1917F01CC2389F0EB
:10087000F80181918F0190E00E94D62C6C018C2FA1
:1008800090E00E94D62CC816D90669F381E090E06A
:1008900002C080E090E0CF911F910F91FF90EF9008
:1008A000DF90CF9008953F924F925F926F927F9228
:1008B0008F929F92AF92BF92CF92DF92EF92FF9270
:1008C0000F931F93CF93DF93CDB7DEB7C154D109F8
:1008D0000FB6F894DEBF0FBECDBF8C015B01019651
:1008E0000E94E3167E0189E2E80EF11C3701250122
:1008F000EEEB4E1AEEEF5E0A6301CE18DF08F2014E
:100900003080332049F1832C912CC4010E94B52CF6
:10091000892B99F0C4010E94C52C892B29F0C401B0
:100920000E94D62CF2018083F2018081F301819331
:100930003F01C5010E944302DFCFFAE33F120CC022
:10094000C5010E944302F701EC0DFD1D108283E3F7
:10095000F8018083B701E5C2F701EC0DFD1D10829F
:100960006DE670E0C7010E942A04892B31F48DE204
:10097000F801808361E070E094C163E770E0C70133
:100980000E942A04892B31F48DE2F801808362E011
:1009900070E087C167E770E0C7010E942A04892BD5
:1009A00031F48DE2F801808363E070E07AC16EE794
:1009B00070E0C7010E942A04892B31F48DE2F8010E
:1009C000808364E070E06DC166E870E0C7010E945A
:1009D0002A04892B31F48DE2F801808365E070E010
:1009E00060C16DE870E0C7010E942A04892B31F4D0
:1009F0008DE2F801808366E070E053C163E970E046
:100A0000C7010E942A04892B31F48DE2F80180830A
:100A100067E070E046C168E970E0C7010E942A04FF
:100A2000892B31F48DE2F80180836BE070E039C1ED
:100A30006EE970E0C7010E942A04892B31F48DE22F
:100A4000F80180836FE070E02CC163EA70E0C701B9
:100A50000E942A04892B31F48DE2F801808368E03A
:100A600070E01FC168EA70E0C7010E942A04892B68
:100A700031F48DE2F801808369E070E012C16DEA23
:100A800070E0C7010E942A04892B31F48DE2F8013D
:100A900080836AE070E005C162EB70E0C7010E94EC
:100AA0002A04892B31F48DE2F80180836CE070E038
:100AB000F8C068EB70E0C7010E942A04892B31F46A
:100AC0008DE2F80180836DE070E0EBC06EEB70E0CA
:100AD000C7010E942A04892B31F48DE2F80180833A
:100AE0006EE070E0DEC064EC70E0C7010E942A0492
:100AF000892B31F48DE2F801808360E170E0D1C090
:100B000069EC70E0C7010E942A04892B31F48DE260
:100B1000F801808361E170E0C4C06EEC70E0C70151
:100B20000E942A04892B31F48DE2F801808362E16E
:100B300070E0B7C063ED70E0C7010E942A04892B02
:100B400031F48DE2F80180836AE170E0AAC06CEDB7
:100B500070E0C7010E942A04892B31F48DE2F8016C
:100B600080836BE170E09DC062EE70E0C7010E947F
:100B70002A04892B31F48DE2F80180836CE170E066
:100B800090C06AEE70E0C7010E942A04892B31F4FC
:100B90008DE2F80180836DE170E083C062EF70E068
:100BA000C7010E942A04892B31F48DE2F801808369
:100BB00063E170E076C06AEF70E0C7010E942A042A
:100BC000892B31F48DE2F801808364E170E069C023
:100BD00060E071E0C7010E942A04892B31F48DE2A4
:100BE000F801808365E170E05CC069E071E0C701F5
:100BF0000E942A04892B31F48DE2F80180836FE191
:100C000070E04FC062E171E0C7010E942A04892BA5
:100C100031F48DE2F801808361E270E042C06AE164
:100C200071E0C7010E942A04892B31F48DE2F8019A
:100C3000808360E270E035C063E271E0C7010E942A
:100C40002A04892B31F48DE2F801808366E170E09B
:100C500028C06EE271E0C7010E942A04892B31F49A
:100C60008DE2F801808367E170E01BC067E371E00B
:100C7000CE0189960E942A04892B31F48DE2F80175
:100C8000808369E170E00DC06EE371E0CE0189966A
:100C90000E942A04892B51F48DE2F801808368E1D7
:100CA00070E0CE0101960E94E4163FC165E471E058
:100CB000CE0189960E942A04892B29F485E2F80145
:100CC000808361E00CC06AE471E0CE0189960E94E5
:100CD0002A04892B49F485E2F801808360E0CE0183
:100CE00001960E94271721C160E571E0CE01899627
:100CF0000E942A04892B31F489E2F801808360E59F
:100D000071E00FC164E571E0CE0189960E942A046A
:100D1000892B31F48AE2F801808364E571E001C136
:100D200068E571E0CE0189960E942A04892B31F48E
:100D30008EE0F801808368E571E0F3C06CE571E056
:100D4000CE0189960E942A04892B31F487E0F801AC
:100D500080836CE571E0E5C06AE871E0CE018996B8
:100D60000E942A04892B31F488E0F80180836AE824
:100D700071E0D7C060E671E0CE0189960E942A0436
:100D8000892B31F48EE0F801808360E671E0C9C000
:100D900064E671E0CE0189960E942A04892B31F421
:100DA0008AE0F801808364E671E0BBC067E671E029
:100DB000CE0189960E942A04892B31F48CE0F80137
:100DC000808367E671E0ADC06CE671E0CE01899684
:100DD0000E942A04892B31F487E2F80180836CE6B3
:100DE00071E09FC062E771E0CE0189960E942A04FB
:100DF000892B99F488E2F82EF801F08262E771E01D
:100E0000CE0101960E941C17FE013196D801119661
:100E100001900D92FA94E1F791C067E771E0CE017D
:100E200089960E942A04892B31F488E1F801808395
:100E300067E771E076C06EE771E0CE0189960E94A7
:100E40002A04892B31F482E3F80180836EE771E094
:100E500068C064E871E0CE0189960E942A04892B5B
:100E600031F48BE0F801808364E871E05AC069E8EE
:100E700071E0CE0189960E942A04892B31F48EE21A
:100E8000F801808369E871E04CC06DE871E0CE0143
:100E900089960E942A04892B31F48FE2F80180831D
:100EA0006DE871E03EC060E971E0CE0189960E9474
:100EB0002A04892B31F48CE2F801808360E971E027
:100EC00030C063E971E0CE0189960E942A04892B23
:100ED00031F480E3F801808363E971E022C068E9BE
:100EE00071E0CE0189960E942A04892B31F481E3B6
:100EF000F801808368E971E014C063E771E0CE0116
:100F000089960E942A04892B31F482E2F8018083B9
:100F100063E771E006C08DE0F8018083BE01675D84
:100F20007F4FCE0101960E941C1788E2FE01319688
:100F3000D801119601900D928A95E1F7C801CF5B17
:100F4000DF4F0FB6F894DEBF0FBECDBFDF91CF915C
:100F50001F910F91FF90EF90DF90CF90BF90AF90D7
:100F60009F908F907F906F905F904F903F900895EB
:100F70008F929F92AF92BF92DF92EF92FF920F9368
:100F80001F93CF93DF93CDB7DEB7C155D1090FB60D
:100F9000F894DEBF0FBECDBF7C018B01CE0102965F
:100FA0000E94E31658018EEBA81A8EEFB80AF501DD
:100FB000D080DD2009F443C18D2C912CC4010E9406
:100FC000CD2C892BD1F0FDE0DF1621F08AE0D8127C
:100FD00010C008C0C8010E945F028A3019F4C8011D
:100FE0000E944302C8010E94430287E189836AE0AC
:100FF00029C1C8010E947002DACFC401C0970A97C4
:1010000028F4B801C7010E948A023CC1E2E2DE1264
:1010100008C0C8010E944302B801C7010E949003A2
:1010200031C1C4010E94B52C892B29F0B801C70138
:101030000E94530427C1F6E2DF120DC0C8010E94CE
:101040005F02883409F414C1C8010E94430289E197
:10105000898366E2F7C08DE3D81207C0C8010E94F9
:10106000430283E189836DE3EDC0ECE2DE1207C049
:10107000C8010E9443028AE189836CE2E3C0F5E281
:10108000DF1207C0C8010E94430282E0898365E243
:10109000D9C08AE3D81207C0C8010E9443028BE17D
:1010A00089836AE3CFC0ECE3DE122FC0C8010E943F
:1010B0005F028E3359F4C8010E944302C8010E94A6
:1010C000430284E189836DE971E086C08D3359F470
:1010D000C8010E944302C8010E94430281E1898342
:1010E00060EA71E079C08C3359F4C8010E94430270
:1010F000C8010E94430285E0898363EA71E06CC005
:10110000C8010E94430280E124C0FEE3DF1224C034
:10111000C8010E945F028D3359F4C8010E94430246
:10112000C8010E94430282E1898366EA71E054C0EB
:101130008E3359F4C8010E944302C8010E94430241
:1011400086E0898369EA71E047C0C8010E944302D2
:101150008FE089836CE376C08BE2D81214C0C8019B
:101160000E944302F50180818D3341F4C8010E9441
:1011700043028CE189836CEA71E02EC083E08983AD
:101180006FEA71E029C0FDE2DF1213C0C8010E94BE
:101190004302F50180818D3341F4C8010E9443026E
:1011A0008DE1898361EB71E017C081E089836DE295
:1011B00049C0FEE5DF1207C0C8010E9443028EE16C
:1011C00089836EE53FC08AE2D8120BC0C8010E9435
:1011D0004302198264EB71E0CE018A960E941C17CB
:1011E00035C0EFE2DE1207C0C8010E94430284E06E
:1011F00089836FE227C0FCE5DF1207C0C8010E94A7
:1012000043028FE189836CE51DC088E2D81207C0D4
:10121000C8010E94430280E2898368E213C0E9E2C8
:10122000DE1207C0C8010E94430281E2898369E29D
:1012300009C066EB71E0C8010E941502B8CE82E2D7
:10124000898360E0CE018A960E94FF1688E2FE0143
:10125000BA96DE01129601900D928A95E1F789E225
:10126000FE013196D70101900D928A95E1F70AC0EF
:10127000C8010E944302C8010E944302B801C7018D
:101280000E942403C701CF5ADF4F0FB6F894DEBF88
:101290000FBECDBFDF91CF911F910F91FF90EF90C7
:1012A000DF90BF90AF909F908F9008950F931F9302
:1012B000CF93DF93CDB7DEB7A9970FB6F894DEBF13
:1012C0000FBECDBF8C010D5B1E4FF8012081261390
:1012D00018C0BC01CE0101960E94B80789E2FE0148
:1012E0003196D80101900D928A95E1F7A9960FB633
:1012F000F894DEBF0FBECDBFDF91CF911F910F914C
:1013000008956DEC71E0A9960FB6F894DEBF0FBE9C
:10131000CDBFDF91CF911F910F910C9415028F9249
:101320009F92AF92BF92CF92DF92EF92FF920F9374
:101330001F93CF93DF93CDB7DEB76E970FB6F894B8
:10134000DEBF0FBECDBF7C016B01942E852E5B01ED
:101350008FEFA81AB80A00E010E0692D782DC501BA
:101360000E94FD2C892BF9F00F5F1F4F98E0A90E0A
:10137000B11C0630110589F78F929F928CED91E098
:101380009F938F93CE0101965C019F938F930E9450
:101390005C2DB501C6010E9415020F900F900F90B1
:1013A0000F900F900F9088E2809FF001819FF00DC9
:1013B0001124EC0DFD1DF196D70101900D928A9537
:1013C000E1F7C7016E960FB6F894DEBF0FBECDBF32
:1013D000DF91CF911F910F91FF90EF90DF90CF9011
:1013E000BF90AF909F908F900895AF92BF92CF9291
:1013F000DF92EF92FF920F931F93CF93DF93CDB7BE
:10140000DEB78C016B015C018FEFA81AB80AE12CE2
:10141000F12CB601C5010E94FD2C892B39F488E21C
:101420008E9DD0018F9DB00D11242AC0EFEFEE1AD2
:10143000FE0AF8E0AF0EB11C86E0E816F10449F7A9
:101440007801E6ECEE1AEEEFFE0AF7018081918159
:1014500023E0880F991F2A95E1F70196B601800FC6
:10146000911F0E94062DF70120813181C90101964B
:101470009183808388E2829FD001839FB00D1124E5
:10148000A00FB11FD196FE013D9601900D928A9555
:10149000E1F781E0DF91CF911F910F91FF90EF90E5
:1014A000DF90CF90BF90AF90089580E090E08617D6
:1014B00097073CF4E6E6FEE03197F1F7000001966D
:1014C000F6CF08950F931F93CF93DF938B01CB013A
:1014D0000E94422FC0E0D0E0882339F02196C80155
:1014E0008C0F9D1F0E94422FF7CFCE01DF91CF912D
:1014F0001F910F910895AF92BF92CF92DF92EF921A
:10150000FF920F931F93CF93DF93CDB7DEB7A997C9
:101510000FB6F894DEBF0FBECDBF8C016B017C010E
:1015200081E3E80EF11C5801EFEDAE1AEEEFBE0AB2
:10153000C7010E94E316F8E2EF0EF11CEA14FB0467
:10154000B9F778018DEBE81A8EEFF80AC70101961A
:101550000E94E316F8011082E45CFE4FD182C08243
:10156000329611821082B601C8010E94620AF80107
:10157000E05CFE4F91838083C6010E94422FF801F8
:10158000EE5BFE4F8083B801CE0101960E94B80742
:1015900089E2FE013196D70101900D928A95E1F71B
:1015A000F801E65CFE4F11821082A9960FB6F894FE
:1015B000DEBF0FBECDBFDF91CF911F910F91FF9086
:1015C000EF90DF90CF90BF90AF900895CF93DF93CF
:1015D00000D0CDB7DEB7809182029091830221E0E6
:1015E00030E0009711F020E030E0AE014F5F5F4F38
:1015F0004217530711F088E892E00F900F90DF91A7
:10160000CF910895AF92BF92CF92DF92EF92FF9267
:101610000F931F93CF93DF93CDB7DEB7C857D10990
:101620000FB6F894DEBF0FBECDBF6C018B01ADB617
:10163000BEB6FB01E85BFE4FE080F1806DE2C801C1
:101640000E94560960E2C8010E94560921E0E21694
:10165000F104F9F4B801CE0101960E940F1061E285
:10166000C8010E945609CE0101960E94CD220E9417
:10167000BF01F8018081882309F4A3C2CE0101963D
:101680000E94CD220E9433168DEE91E00E94331607
:1016900098C2F4E0EF16F10449F461E2C8010E9437
:1016A0005609C8010E94E60ABC0187C225E0E2167D
:1016B000F10469F461E2C8010E9456099BE088E1E7
:1016C0000FB6F894A89581BD0FBE91BDFFCF33E052
:1016D000E316F10451F4B801CE0101960E940F10F7
:1016E0006DA17EA16150710978C086E0E816F10411
:1016F00079F4B801CE0101960E940F1061E2C80191
:101700000E9456096D817E81C8010E94550A59C206
:101710009EE1E916F10409F045C0B801CE018F5AE7
:101720009F4F0E940F106AE1C8010E945609B8013C
:10173000CE0189960E940F106AE1C8010E945609E5
:10174000B801CE0101960E940F10ED80FE8061E28B
:10175000C8010E945609C7010196EDB7FEB7E81B04
:10176000F90B0FB6F894FEBF0FBEEDBF0DB71EB755
:101770000F5F1F4FCE018F5A9F4F0E94CD22A701AE
:10178000BC01C8010E94E92CF801EE0DFF1D10827A
:10179000B801C6010E941C170FB6F894BEBE0FBE5A
:1017A000ADBE17C2F2E0EF16F10419F5C8018C5B6B
:1017B0009E4F0E94CD22AC01B801CE0101960E943D
:1017C0008F09CE0101960E94CD22FC0101900020DC
:1017D000E9F73197BF01681B790BCE0189960E940A
:1017E000E41661E2C8010E94560988E2FE01B9963A
:1017F000EBC127E0E216F10461F4B801CE010196D5
:101800000E940F1061E2C8010E9456098D818ABBB7
:10181000D8C13BE0E316F10461F4B801CE010196B2
:101820000E940F1061E2C8010E9456098D818BBB96
:10183000C8C18FE0E816F10431F461E2C8010E94EA
:10184000560969B37DC098E0E916F10461F4B80166
:10185000CE0101960E940F1061E2C8010E94560954
:101860008D8187BBAEC1E9E0EE16F10461F4B801E9
:10187000CE0101960E940F1061E2C8010E94560934
:101880008D8184BB9EC1FAE0EF16F10461F4B801CA
:10189000CE0101960E940F1061E2C8010E94560914
:1018A0008D8181BB8EC12CE0E216F10461F4B80198
:1018B000CE0101960E940F1061E2C8010E945609F4
:1018C0008D8188BB7EC13DE0E316F10461F4B8016F
:1018D000CE0101960E940F1061E2C8010E945609D4
:1018E0008D8185BB6EC18EE0E816F10461F4B8010C
:1018F000CE0101960E940F1061E2C8010E945609B4
:101900008D8182BB5EC190E1E916F10431F461E2A0
:10191000C8010E94560966B313C0E1E1EE16F10456
:1019200031F461E2C8010E94560963B309C0F2E1D3
:10193000EF16F10439F461E2C8010E94560960B360
:1019400070E03BC12AE1E216F10449F461E2C8010A
:101950000E94560980E487B987E886B92CC13CE12A
:10196000E316F104C1F4B801CE0101960E940F10F4
:101970008D819E811816190614F095980DC18F3F20
:10198000910514F0959A08C191E89FBD9BE09EBD1A
:101990001BBC8ABD01C18DE1E816F104C1F4B80198
:1019A000CE0101960E940F108D819E811816190696
:1019B00014F09498F1C08F3F910514F0949AECC004
:1019C00091E29FBD9BE09EBD19BC88BDE5C09BE137
:1019D000E916F10479F5B801CE0189960E940F103D
:1019E00061E2C8010E9456098DA5806487B9E6E6C8
:1019F000FEE03197F1F70000369A3699FECF64B1D8
:101A000075B1072E000C880B990B0E94862420E0EC
:101A100030EC4FE754E40E94DC2320E030E040EA61
:101A200050E40E943B25AB01BC01CE0101960E940F
:101A30002C17C7C0F3E1EF16F10481F4B801CE0111
:101A400001960E940F1061E2C8010E945609CE0162
:101A500001960E94AB220E949501ADC024E1E216DE
:101A6000F104C9F4B801CE0189960E940F106AE111
:101A7000C8010E945609B801CE0101960E940F10BC
:101A800061E2C8010E9456096D817E818DA59EA5E7
:101A90000E94D00190C035E1E316F10439F461E20F
:101AA000C8010E9456090E94CC0185C086E1E81653
:101AB000F104A1F4B801CE0101960E940F1061E279
:101AC000C8010E945609CE0101960E94CD220E94B3
:101AD00033168DEE91E00E9433166DC097E1E91642
:101AE000F10489F461E2C8010E9456090F5D1E4F9E
:101AF00069E170E0C8010E943C16B801CE01019670
:101B00000E941C175EC0E8E1EE16F10469F4B8010A
:101B1000CE0189960E940F1061E2C8010E94560909
:101B20008DA50E946A1647C0F9E1EF16F10461F431
:101B300061E2C8010E9456090E945516682FCE0125
:101B400001960E94FF163DC020E2E216F10481F4E6
:101B500061E2C8010E9456090E946E16009711F0BA
:101B6000BC0102C06FEE71E0C6010E941C1731C0BB
:101B700031E2E316F104A9F4B801CE0101960E9406
:101B80000F108D819E818036994021F481E080BDC7
:101B90008FE701C08FE589B961E2C8010E9456094B
:101BA0000AC0FFE1EF16F10431F461E2C8010E94BE
:101BB0005609579A789460E070E0CE0101960E9431
:101BC000E41688E2FE013196D60101900D928A95C5
:101BD000E1F7C6010FB6F894BEBE0FBEADBEC85841
:101BE000DF4F0FB6F894DEBF0FBECDBFDF91CF91B0
:101BF0001F910F91FF90EF90DF90CF90BF90AF902B
:101C00000895CF92DF92EF92FF920F931F93CF939D
:101C1000DF93CDB7DEB7C957D1090FB6F894DEBF51
:101C20000FBECDBF7C018B016B018DEBC81A8EEF0F
:101C3000D80A89E2F601DE01119601900D928A958B
:101C4000E1F78981833081F463E0C8010E9456097D
:101C5000B801CE018A960E94010EBE01665D7F4FDB
:101C6000C7010E9429229BC0813081F461E0C80134
:101C70000E945609B801CE018A960E94010EBE014B
:101C8000665D7F4FC7010E94682289C08E3081F453
:101C90006EE0C8010E945609B801CE018A960E94E2
:101CA000010EBE01665D7F4FC7010E94D31D77C044
:101CB000853211F465E249C0843211F464E245C012
:101CC0008D30B1F56DE0C8010E945609F6018081A2
:101CD000803219F560E2C8010E945609B801CE01B0
:101CE0008A960E94010ECEA4DFA461E2C8010E9480
:101CF0005609CE0102960E94CD22AC01B801CE0158
:101D00008E5A9F4F0E948F09A601BE016E5A7F4FC7
:101D1000CE018A960E9414233AC0CE0102960E94F8
:101D2000CD22AC01B801CE018A960E948F092FC046
:101D30008D3221F4C7010E94020B31C0833211F4AD
:101D400063E203C08B3241F46BE2C8010E94560982
:101D500088E2FE0132961EC0803271F460E2C80152
:101D60000E945609B801CE018A960E940F1061E2C6
:101D7000C8010E9456090BC060EF71E0C8010E94C3
:101D8000150260E070E0CE018A960E94E41688E2B7
:101D9000FE01BA96D70101900D928A95E1F7C7012D
:101DA000C758DF4F0FB6F894DEBF0FBECDBFDF912F
:101DB000CF911F910F91FF90EF90DF90CF900895FA
:101DC000CF92DF92EF92FF920F931F93CF93DF9307
:101DD000CDB7DEB7C055D1090FB6F894DEBF0FBE40
:101DE000CDBF8C017B010E94010E67018DEBC81AEB
:101DF0008EEFD80AF6018081882391F1843009F4AE
:101E000041C0873009F4BCC0883009F4CBC08930A8
:101E100009F4DAC08F3009F48FC0823109F49EC012
:101E2000803109F465C0813109F474C08230E1F178
:101E3000843109F44BC0833109F0E0C063E1C7018C
:101E40000E945609B701CE0101960E94010EAE0113
:101E50004F5F5F4FB801CE0189960E94A41EC5C096
:101E600060E0C7010E945609B701CE0101960E94A9
:101E7000010EAE014F5F5F4FB801CE0189960E94FF
:101E80005219B3C064E0C7010E945609B701CE01E0
:101E900001960E94010EAE014F5F5F4FB801CE0167
:101EA00089960E94E519A1C062E0C7010E94560907
:101EB000B701CE0101960E94010EAE014F5F5F4F48
:101EC000B801CE0189960E94731A8FC064E1C701E0
:101ED0000E945609B701CE0101960E94010EAE0183
:101EE0004F5F5F4FB801CE0189960E94311F7DC0C0
:101EF00060E1C7010E945609B701CE0101960E9418
:101F0000010EAE014F5F5F4FB801CE0189960E946E
:101F1000BF1F6BC061E1C7010E945609B701CE0126
:101F200001960E94010EAE014F5F5F4FB801CE01D6
:101F300089960E94462059C06FE0C7010E94560949
:101F4000B701CE0101960E94010EAE014F5F5F4FB7
:101F5000B801CE0189960E94E82047C062E1C7011E
:101F60000E945609B701CE0101960E94010EAE01F2
:101F70004F5F5F4FB801CE0189960E948A2135C01C
:101F800067E0C7010E945609B701CE0101960E9481
:101F9000010EAE014F5F5F4FB801CE0189960E94DE
:101FA000E61B23C068E0C7010E945609B701CE01B5
:101FB00001960E94010EAE014F5F5F4FB801CE0146
:101FC00089960E94411D11C069E0C7010E9456090F
:101FD000B701CE0101960E94010EAE014F5F5F4F27
:101FE000B801CE0189960E94191E88E2FE01B996B9
:101FF000D80101900D928A95E1F7FCCEC801C05B33
:10200000DF4F0FB6F894DEBF0FBECDBFDF91CF918B
:102010001F910F91FF90EF90DF90CF900895CF9296
:10202000DF92EF92FF920F931F93CF93DF93CDB781
:10203000DEB7C055D1090FB6F894DEBF0FBECDBFD5
:102040008C017B010E94E00E67018DEBC81A8EEFB8
:10205000D80AF60180818330E1F0813061F1893165
:10206000E1F1853009F44BC0863009F062C066E0CA
:10207000C7010E945609B701CE0101960E94E00EE9
:10208000AE014F5F5F4FB801CE0189960E94661B7B
:1020900047C063E0C7010E945609B701CE0101960F
:1020A0000E94E00EAE014F5F5F4FB801CE018996EE
:1020B0000E946C1735C061E0C7010E945609B70144
:1020C000CE0101960E94E00EAE014F5F5F4FB80156
:1020D000CE0189960E94C51823C069E1C7010E94FC
:1020E0005609B701CE0101960E94E00EAE014F5F86
:1020F0005F4FB801CE0189960E94E61B11C065E0D2
:10210000C7010E945609B701CE0101960E94E00E58
:10211000AE014F5F5F4FB801CE0189960E94E61A6B
:1021200088E2FE01B996D80101900D928A95E1F7F7
:1021300090CFC801C05BDF4F0FB6F894DEBF0FBE73
:10214000CDBFDF91CF911F910F91FF90EF90DF9066
:10215000CF900895BF92CF92DF92EF92FF920F93AC
:102160001F93CF93DF93CDB7DEB7CD58D1090FB60C
:10217000F894DEBF0FBECDBF8C017C018DEBE81A59
:102180008EEFF80AF7018081893239F469E2C801DB
:102190000E945609BB24B39401C0B12C6801FCEB2A
:1021A000CF1AFEEFDF0AC6010E94CD22BC01CE018C
:1021B0008F5A9F4F0E94062D6DE0C8010E9456095C
:1021C000B11097C0F70180818032C1F560E2C8018B
:1021D0000E945609B801CE0101960E940F10ED80B1
:1021E000FE8061E2C8010E94560963E1C8010E94B5
:1021F0005609AE014F5A5F4FB801CE0189960E9431
:102200008F09B801CE0101960E940F108FA1811194
:1022100008C04D815E81B701CE0189960E94462398
:10222000B4C0833009F0B1C02F81388549855A8503
:10223000B701CE0189960E945523A7C0833139F595
:1022400063E1C8010E945609B801CE0101960E94BF
:102250000F108DB79EB788970FB6F8949EBF0FBE2C
:102260008DBFADB7BEB7119688E2FE0131960190E1
:102270000D928A95E1F7BE016F5A7F4FC8010E9407
:10228000F5090FB6F894DEBF0FBECDBF7EC0F801D2
:10229000E25CFE4F1182108260E070E0C8010E9493
:1022A0000202F801EE5BFE4F8083B801CE018B592C
:1022B0009F4F0E94B80789E2FE01EB59FF4FD701FB
:1022C00001900D928A95E1F7B801CE0101960E9426
:1022D0000F10F8018081882309F457C0CE010196C0
:1022E0000E94CD220E9433168DEE91E00E9433169B
:1022F0004CC060E2C8010E945609B801CE010196A7
:102300000E940F10ED80FE8061E2C8010E94560914
:102310006CE2C8010E945609C6010E94CD22BC0190
:10232000CE0189960E94062D6FEF71E0CE0189964D
:102330000E942A04A701892B11F460E001C063E028
:10234000CE0101960E9434178DB79EB788970FB6BD
:10235000F8949EBF0FBE8DBFADB7BEB7119688E291
:10236000FE01319601900D928A95E1F7BE016F5AF8
:102370007F4FC8010E94F5090FB6F894DEBF0FBE6B
:10238000CDBF6DE0C8010E945609C357DF4F0FB69D
:10239000F894DEBF0FBECDBFDF91CF911F910F919B
:1023A000FF90EF90DF90CF90BF9008950F931F9311
:1023B000CF93DF93CDB7DEB7A8970FB6F894DEBF03
:1023C0000FBECDBF8C01FC01ED5BFE4F80818D30D7
:1023D00011F0893221F4C8010E94AA1035C08D3253
:1023E00031F4B801CE0101960E94020B2DC0873254
:1023F00021F4C8010E94C11427C08E3221F4C80103
:102400000E942F1221C08A3021F4C8010E9430148A
:102410001BC0823321F4C8010E94A01315C083326F
:1024200099F4B801CE0101960E940F10F801808145
:10243000882351F0CE0101960E94CD220E943316CE
:102440008DEE91E00E943316A8960FB6F894DEBF89
:102450000FBECDBFDF91CF911F910F9108956F9265
:102460007F928F929F92AF92BF92CF92DF92EF9224
:10247000FF920F931F93CF93DF93CDB7DEB7CD5865
:10248000D1090FB6F894DEBF0FBECDBF8C015C0141
:1024900082ECA81A8EEFB80AF501C080D180F3E073
:1024A000CF0ED11C6EE2C8010E945609C8018C5B98
:1024B0009E4F0E94CD22BC01CE018F5A9F4F0E9499
:1024C000062DC8010E94AA106FE2C8010E94560999
:1024D000C8018D5B9E4F7C0138019EEB691A9EEF0F
:1024E000790AAE014F5A5F4FB801CE0189960E941A
:1024F0008F098DA49EA4B801CE0101960E940F10F1
:102500008D819E818815990524F4CC24C394D12C07
:102510006FC0F7018081803361F460E3C8010E94DD
:102520005609B801CE0101960E940F108D809E8041
:1025300003C088248394912CF7018081813341F07A
:10254000C8010E94D61167E1C8010E945609F4CF64
:10255000AE014F5A5F4FB801CE0189960E948F0994
:102560006DA57EA5680D791DCE0101960E94E41629
:102570008DB79EB788970FB6F8949EBF0FBE8DBFDC
:10258000ADB7BEB7119688E2FE01319601900D926B
:102590008A95E1F7BE016F5A7F4FC8010E94F50985
:1025A000F501D182C0820FB6F894DEBF0FBECDBF59
:1025B000B601C8010E940202F3018083B801CE0176
:1025C0008B599F4F0E94B80789E2FE01EB59FF4FDC
:1025D000D70101900D928A95E1F7F70180818F3242
:1025E00069F76FE2C8010E9456097BCF8133B9F0C9
:1025F000B801CE018B599F4F0E94B80789E2FE01B6
:10260000EB59FF4FD70101900D928A95E1F7F70141
:1026100080818E3259F7FFEFCF1ADF0AE9CF81E0D0
:10262000C81AD10829F761E3C8010E945609F701C9
:1026300080818D3021F46DE0C8010E945609C35796
:10264000DF4F0FB6F894DEBF0FBECDBFDF91CF9145
:102650001F910F91FF90EF90DF90CF90BF90AF90C0
:102660009F908F907F906F900895EF92FF920F93BD
:102670001F93CF93DF93CDB7DEB7A9970FB6F8942A
:10268000DEBF0FBECDBF8C01FC01E45CFE4F718349
:102690006083329611821082FB0101900020E9F7DD
:1026A0003197E61BF70BDC01A05CBE4FED93FC936A
:1026B00060E070E00E940202F801EE5BFE4F808352
:1026C00078018DEBE81A8EEFF80AB801CE01019679
:1026D0000E94B80789E2FE013196D70101900D9260
:1026E0008A95E1F7C801A9960FB6F894DEBF0FBE30
:1026F000CDBFDF91CF911F910F91FF90EF900C9480
:10270000D6110F931F93CF93DF93EC010E94D61144
:102710008E010D5B1E4FF8018081823251F08731AE
:1027200021F467E1CE010E945609CE010E94D61124
:10273000F2CFDF91CF911F910F9108950C948113E7
:102740008F929F92AF92BF92CF92DF92EF92FF92C1
:102750000F931F93CF93DF93CDB7DEB7ED970FB6EF
:10276000F894DEBF0FBECDBF8C0162E30E94560914
:1027700048018CEB881A8EEF980AC4010E94CD2282
:10278000BC01CE0101960E94062D6801E2ECCE1A32
:10279000EEEFDE0AF601A080B1806DE0C8010E9474
:1027A0005609F601118210827801FDEBEF1AFEEF57
:1027B000FF0AB801CE0145960E94B80789E2FE01E2
:1027C0007596D70101900D928A95E1F7F701808106
:1027D000833379F7C4010E94CD22BC01CE0101965A
:1027E0000E94FD2C892B29F763E3C8010E9456093A
:1027F000F7018081883129F0C8010E94D61167E174
:10280000F4CF68E1C8010E945609F601B182A082A6
:10281000B501C8010E940202F801EE5BFE4F808301
:10282000B801CE0145960E94B80789E2FE0175966F
:10283000D70101900D928A95E1F7ED960FB6F894C5
:10284000DEBF0FBECDBFDF91CF911F910F91FF90E3
:10285000EF90DF90CF90BF90AF909F908F900895B2
:10286000EF92FF920F931F93CF93DF93CDB7DEB715
:10287000C155D1090FB6F894DEBF0FBECDBF8C0194
:102880006AE00E945609B801CE0101960E940F101D
:10289000CE0101960E94AB2298012D5B3E4F79013B
:1028A0006CE0882329F1C8010E945609C8010E94E2
:1028B000D61167E1C8010E945609F70180818B306B
:1028C00009F051C06BE0C8010E945609F7018081F0
:1028D000873191F1B801CE0189960E94B80789E24B
:1028E000FE01B996D70101900D928A95E1F7EECFDE
:1028F000C8010E945609F7018081873171F0B80143
:10290000CE0189960E94B80789E2FE01B996D701E7
:1029100001900D928A95E1F7EECF67E1C8010E9420
:102920005609F70180818B3061F46BE0C8010E9489
:102930005609C8010E94D61167E1C8010E945609D4
:1029400012C0F70180818731B9F3B801CE018996B1
:102950000E94B80789E2FE01B996D70101900D9255
:102960008A95E1F7EECFCF5ADF4F0FB6F894DEBF6E
:102970000FBECDBFDF91CF911F910F91FF90EF90D0
:1029800008958F929F92AF92BF92CF92DF92EF9273
:10299000FF920F931F93CF93DF93CDB7DEB7C1554F
:1029A000D1090FB6F894DEBF0FBECDBF8C0167E230
:1029B0000E945609580182ECA81A8EEFB80AF50158
:1029C000E080F180F1E0EF1AF10860E2C8010E94B6
:1029D0005609C8018D5B9E4F6C0148019EEB891A18
:1029E0009EEF990AB801CE0101960E940F10CE0108
:1029F00001960E94AB22882359F161E2C8010E942E
:102A0000560967E1C8010E945609F60180818832A3
:102A100021F0C8010E94D611F4CFF501F182E082C5
:102A2000B701C8010E940202F4018083B801CE01FF
:102A300089960E94B80789E2FE01B996D6010190F5
:102A40000D928A95E1F760E2C8010E945609CACF4B
:102A5000F6018081813231F561E2C8010E94560998
:102A6000EE24E394F12CB801CE0189960E94B807B8
:102A700089E2FE01B996D60101900D928A95E1F79F
:102A8000F6018081873221F4FFEFEF1AFF0AEBCFC6
:102A9000883249F781E0E81AF10829F768E2C801AD
:102AA0000E945609CF5ADF4F0FB6F894DEBF0FBE13
:102AB000CDBFDF91CF911F910F91FF90EF90DF90ED
:102AC000CF90BF90AF909F908F900895CF93DF935A
:102AD000CDB7DEB7C558D1400FB6F894DEBF0FBEF4
:102AE000CDBF0FB6F894A89581B5886181BD11BCA2
:102AF0000FBE88E18AB987E089B98FEF84BB15BA28
:102B000080911602909117029C012F5F3F4F3093E6
:102B100017022093160244972CF50E9455168093B5
:102B20001202882369F391E0909313028A33D1F45F
:102B3000CE0101960E94D90180E00E94950187E0B4
:102B400092E00E94331669E170E0CE0183599E4FF6
:102B50000E943C16BE0163597E4FCE0101960E9431
:102B60003513EDCF80911302882369F110E4809131
:102B700012028823F9F0E19B02C015BBFCCF8091C3
:102B800014029091150260911202805090400E94B0
:102B90004A2F80911402909115020196909315028C
:102BA000809314028AE00E946A160E945516809350
:102BB0001202DDCF809114029091150260E08050E6
:102BC00090400E944A2F60E070E0CE0101960E9482
:102BD0007B0ACE0101960E949E139DEF8EEF2FEF90
:102BE0003FE746E1215030404040E1F700C000009F
:102BF00095BB2FEF3FE746E1215030404040E1F7E1
:102C000000C0000085BBEBCF1F920F920FB60F9252
:102C100011242F933F934F938F939F93EF93FF93A1
:102C200080911C0290911D029C012F5F3F4F3093B9
:102C30001D0220931C024CB1FC01E25EFD4F40835B
:102C40002436310524F010921D0210921C02FF91CF
:102C5000EF919F918F914F913F912F910F900FBEC8
:102C60000F901F901895FC015D9BFECF81918CB950
:102C700080818111F9CF0895FC0120E030E05F9B55
:102C8000FECF4CB141934A3039F04D3029F02F5FDF
:102C90003F4F2617370798F3FC01E20FF31F261763
:102CA000370709F431971082089580E090E05F992A
:102CB0000CC001968536910511F480E00895E6E692
:102CC000FEE03197F1F70000F2CF84369105A9F3C9
:102CD0008CB108955D9BFECF8CB908950F931F931F
:102CE000CF93DF9300911A0210911B02C801FC01DF
:102CF000E25EFD4F40819C012F5F3F4F4A3071F0F3
:102D00004D3061F0C9012436310514F080E090E0C7
:102D10000817190761F780E090E050C0801791070D
:102D200034F4801B910BEC01CC59DF4F03C0EC0154
:102D3000C01BD10B253631052CF430931B02209398
:102D40001A0204C010921B0210921A0280911802FB
:102D500090911902009711F00E941C2ACE01019651
:102D60000E948429909319028093180280E090E0D9
:102D700020911802309119028C179D0794F4F801E4
:102D8000E25EFD4F4081D901A80FB91F4C930F5F40
:102D90001F4F10820436110514F000E010E0019678
:102DA000E7CFCE01D7FF02C080E090E0E901C80F75
:102DB000D91F18828091180290911902DF91CF914A
:102DC0001F910F9108950895CF93DF93EC016C83C9
:102DD0007D837F936F938BE092E09F938F93CE01DF
:102DE0000A969F938F930E945C2D1EA20F900F90C6
:102DF0000F900F900F900F90DF91CF910895CF9388
:102E0000DF93EC01862F90E09D838C831F926F935C
:102E10008BE092E09F938F93CE010A969F938F93BE
:102E20000E945C2D1EA20F900F900F900F900F909C
:102E30000F90DF91CF910895CF93DF93EC010A9625
:102E40000E94062D81E08EA3DF91CF910895FC01B1
:102E500067A322E026A30895FC0146835783608779
:102E6000718723E026A308950F931F93CF93DF93D9
:102E7000EC018A016EA381E08BA3611111C0CA012C
:102E8000880F991F0E94842988839983FC0180E020
:102E900090E080179107DCF4119211920196F9CF1E
:102EA0006330A9F4CA01880F991F880F991F0E94E7
:102EB00084298A839B83FC0180E090E0801791073E
:102EC00034F411921192119211920196F7CFDF9181
:102ED000CF911F910F9108955F926F927F928F9281
:102EE0009F92AF92BF92CF92DF92EF92FF920F9399
:102EF0001F93CF93DF93CDB7DEB7CA55D1090FB675
:102F0000F894DEBF0FBECDBF6C018B017A01FB01CF
:102F100056A0FA01B6A0F1E05F1629F1BF12AAC0CF
:102F2000CE018E5B9F4F5C01FB013A963F01CA01C7
:102F30000A964C015110F3C0FB0185818F93848167
:102F40008F938BE092E09F938F93BF92AF920E94FA
:102F50005C2DB301C5010E94062DB401C5010E947C
:102F6000F22CB50124C0FB013A964F01B11032C0DA
:102F7000FA0185818F9384818F938BE092E09F93F8
:102F80008F938E01075D1F4F1F930F930E945C2D3F
:102F9000B401CE018E5B9F4F0E94062DB801CE0179
:102FA0008E5B9F4F0E94F22CBE016E5B7F4FCE0165
:102FB00001960E941C1788E2FE013196D60101900D
:102FC0000D928A95E1F70F900F900F900F900F9050
:102FD0000F90C3C0F3E0BF1235C0FA0181858F9313
:102FE00080858F9387818F9386818F938EE092E087
:102FF0009F938F938E01075D1F4F1F930F930E9426
:103000005C2DB401CE018E5B9F4F0E94062DB8014E
:10301000CE018E5B9F4F0E94F22CBE016E5B7F4FF4
:10302000CE0101960E941C1788E2FE013196D6015E
:1030300001900D928A95E1F70FB6F894DEBF0FBEAE
:10304000CDBF8BC0B801665F7F4FCE018E5B9F4FB7
:103050000E94062DB701665F7F4FCE018E5B9F4FAA
:103060000E94F22CBE016E5B7F4FCE0101960E9442
:103070001C174CC093E059120DC0FA01B9121CC0C4
:103080002681378140855185FB0166817781808566
:1030900091852AC0FB0164817581F3E0BF122DC0C8
:1030A000072E000C880B990B0E948624F7012681BD
:1030B00037814085518518C064817581072E000CC9
:1030C000880B990B0E9486249B01AC01F801668154
:1030D0007781808591850E946B23F60166837783D3
:1030E0008087918756A239C00E946B23F6016683C0
:1030F000778380879187B6A230C0FA018481958159
:10310000680F791FCE0101960E94E41688E2FE0145
:103110003196D60101900D928A95E1F71EC0F3E039
:103120005F1290CFF80181858F9380858F9387817F
:103130008F9386818F938EE092E09F938F93BF92BF
:10314000AF920E945C2DB301C5010E94062DB4010F
:10315000C5010E94F22CB50163CFC601C65ADF4FEC
:103160000FB6F894DEBF0FBECDBFDF91CF911F9198
:103170000F91FF90EF90DF90CF90BF90AF909F9016
:103180008F907F906F905F900895AF92BF92CF9293
:10319000DF92EF92FF920F931F93CF93DF93CDB700
:1031A000DEB7A8970FB6F894DEBF0FBECDBF8C0177
:1031B0007B016A01FB01A6A0F1E0AF1629F0FA013C
:1031C000B6A0F1E0BF1208C0B701665F7F4FCE0125
:1031D00001960E941C174CC083E0A8120DC0FA0192
:1031E000B8121CC02681378140855185FB0166815C
:1031F0007781808591852AC0FB0164817581F3E028
:10320000BF122DC0072E000C880B990B0E9486243C
:10321000F601268137814085518518C0648175810A
:10322000072E000C880B990B0E9486249B01AC0191
:10323000F70166817781808591850E946A23F80174
:103240006683778380879187A6A21AC00E946A232B
:10325000F8016683778380879187B6A211C0FA014F
:1032600084819581681B790BCE0101960E94E4163A
:1032700088E2FE013196D80101900D928A95E1F71E
:10328000C801A8960FB6F894DEBF0FBECDBFDF9180
:10329000CF911F910F91FF90EF90DF90CF90BF9053
:1032A000AF900895AF92BF92CF92DF92EF92FF92CC
:1032B0000F931F93CF93DF93CDB7DEB7A8970FB6C9
:1032C000F894DEBF0FBECDBF8C017B016A01FB010C
:1032D000A6A0F1E0AF1629F0FA01B6A0F1E0BF1206
:1032E00008C0B701665F7F4FCE0101960E941C1790
:1032F00052C083E0A8120DC0FA01B8121CC026818A
:10330000378140855185FB01668177818085918574
:103310002AC0FB0164817581F3E0BF122DC0072E26
:10332000000C880B990B0E948624F60126813781B8
:103330004085518518C064817581072E000C880B6B
:10334000990B0E9486249B01AC01F701668177816D
:10335000808591850E943B25F8016683778380876D
:103360009187A6A220C00E943B25F801668377833F
:1033700080879187B6A217C0FA0124813581629FA8
:10338000C001639F900D729F900D1124BC01CE016E
:1033900001960E94E41688E2FE013196D801019060
:1033A0000D928A95E1F7C801A8960FB6F894DEBF92
:1033B0000FBECDBFDF91CF911F910F91FF90EF9086
:1033C000DF90CF90BF90AF900895AF92BF92CF9211
:1033D000DF92EF92FF920F931F93CF93DF93CDB7BE
:1033E000DEB7A8970FB6F894DEBF0FBECDBF8C0135
:1033F0007B016A01FB01A6A0F1E0AF1629F0FA01FA
:10340000B6A0F1E0BF1208C0B701665F7F4FCE01E2
:1034100001960E941C174DC023E0A2120DC0FA01B4
:10342000B2121CC02681378140855185FB0166811F
:103430007781808591852AC0FB0184819581F3E0A5
:10344000BF122DC0BC01990F880B990B0E948624D6
:10345000F601268137814085518518C064817581C8
:10346000072E000C880B990B0E9486249B01AC014F
:10347000F70166817781808591850E94DC23F801C0
:103480006683778380879187A6A21BC00E94DC2376
:10349000F8016683778380879187B6A212C0FA010C
:1034A00024813581B9010E942529CE0101960E940F
:1034B000E41688E2FE013196D80101900D928A95BA
:1034C000E1F7C801A8960FB6F894DEBF0FBECDBFD6
:1034D000DF91CF911F910F91FF90EF90DF90CF90F0
:1034E000BF90AF900895CF92DF92EF92FF920F932B
:1034F0001F93CF93DF93CDB7DEB7A8970FB6F8949D
:10350000DEBF0FBECDBF8C01FB017A0196A19130C9
:1035100029F0DA0196968C91813041F4BF01665F03
:103520007F4FCE0101960E941C1738C0933051F492
:10353000833069F466817781808591850E944E246D
:103540006B0113C0C480D5808330D9F40EC066816E
:103550007781808591850E944E24D70114962D9104
:103560003C911597CB01B90112C0F70166817781B3
:10357000808591850E944E24AB01BC01C601BA0131
:1035800006C0DA0114966D917C911597C6010E94D0
:103590002529BC01CE0101960E94E41688E2FE01B5
:1035A0003196D80101900D928A95E1F7C801A8964D
:1035B0000FB6F894DEBF0FBECDBFDF91CF911F9144
:1035C0000F91FF90EF90DF90CF9008958F929F9290
:1035D000AF92BF92CF92DF92EF92FF920F931F9321
:1035E000CF93DF93CDB7DEB7A8970FB6F894DEBFC1
:1035F0000FBECDBF8C01FB016A0196A1913029F06D
:10360000DA0196968C91813041F4BF01665F7F4F5D
:10361000CE0101960E941C173DC0933099F483306F
:10362000F1F466817781808591850E944E244B015B
:103630005C01F60166817781808591850E944E2428
:10364000C40114C0E480F5808330B9F4FA016681C6
:103650007781808591850E944E24C70107C06681CD
:103660007781808591850E944E2408C002C0880F12
:10367000991F6A95E2F7BC0109C0B701D6011496FB
:103680000C9002C0660F771F0A94E2F7CE010196F4
:103690000E94E41688E2FE013196D80101900D9255
:1036A0008A95E1F7C801A8960FB6F894DEBF0FBE61
:1036B000CDBFDF91CF911F910F91FF90EF90DF90E1
:1036C000CF90BF90AF909F908F9008958F929F92D0
:1036D000AF92BF92CF92DF92EF92FF920F931F9320
:1036E000CF93DF93CDB7DEB7A8970FB6F894DEBFC0
:1036F0000FBECDBF8C01FB016A0196A1913029F06C
:10370000DA0196968C91813041F4BF01665F7F4F5C
:10371000CE0101960E941C173DC0933099F483306E
:10372000F1F466817781808591850E944E244B015A
:103730005C01F60166817781808591850E944E2427
:10374000C40114C0E480F5808330B9F4FA016681C5
:103750007781808591850E944E24C70107C06681CC
:103760007781808591850E944E2408C002C095957E
:1037700087956A95E2F7BC0109C0B701D601149696
:103780000C9002C0759567950A94E2F7CE010196F8
:103790000E94E41688E2FE013196D80101900D9254
:1037A0008A95E1F7C801A8960FB6F894DEBF0FBE60
:1037B000CDBFDF91CF911F910F91FF90EF90DF90E0
:1037C000CF90BF90AF909F908F9008958F929F92CF
:1037D000AF92BF92CF92DF92EF92FF920F931F931F
:1037E000CF93DF93CDB7DEB7CA55D1090FB6F894A2
:1037F000DEBF0FBECDBF7C01FB018A0196A19230D6
:1038000029F0DA0196968C91823069F487A1882399
:1038100011F0F80187A192E0D70196969C939697B4
:1038200097968C9319C1913031F1813009F0B0C075
:103830009E012E5B3F4F6901DB011A965D019A01E3
:10384000265F3F4F49019111EAC085818F938481A2
:103850008F938BE092E09F938F93DF92CF920E94A1
:103860005C2DB501C6010E94062DB401C6010E945F
:10387000F22CB60124C0DB011A966D01811132C011
:10388000FA0185818F9384818F938BE092E09F93DF
:103890008F938E01075D1F4F1F930F930E945C2D26
:1038A000B601CE018E5B9F4F0E94062DB801CE015E
:1038B0008E5B9F4F0E94F22CBE016E5B7F4FCE014C
:1038C00001960E941C1788E2FE013196D7010190F3
:1038D0000D928A95E1F70F900F900F900F900F9037
:1038E0000F90BAC08330E1F5DA0119968C911997DF
:1038F0008F9318968C9118978F9317968C91179792
:103900008F9316968C918F938EE092E09F938F9376
:103910008E01075D1F4F1F930F930E945C2DB60110
:10392000CE018E5B9F4F0E94062DB801CE018E5BAB
:103930009F4F0E94F22CBE016E5B7F4FCE0101961D
:103940000E941C1788E2FE013196D70101900D926A
:103950008A95E1F70FB6F894DEBF0FBECDBF7CC0ED
:10396000BF01665F7F4FCE018E5B9F4F0E94062D89
:10397000B801665F7F4FCE018E5B9F4F0E94F22C95
:10398000BE016E5B7F4FCE0101960E941C173EC0A8
:103990009330B1F4833021F56681778180859185FC
:1039A0000E944E244B015C01D80116966D917D91C9
:1039B0008D919C9119970E944E246821792122C0F3
:1039C000C480D5808330C1F4DA0116966D917D9163
:1039D0008D919C9119970E944E246C217D2112C0DB
:1039E00066817781808591850E944E24F80124812B
:1039F00035816223732306C0FA0184819581B60163
:103A000068237923CE0101960E94E41688E2FE0124
:103A10003196D70101900D928A95E1F71DC0933040
:103A200009F09ECF81858F9380858F9387818F93B7
:103A300086818F938EE092E09F938F93DF92CF9257
:103A40000E945C2DB501C6010E94062DB401C6017D
:103A50000E94F22CB60172CFC701C65ADF4F0FB6D3
:103A6000F894DEBF0FBECDBFDF91CF911F910F91B4
:103A7000FF90EF90DF90CF90BF90AF909F908F908E
:103A800008958F929F92AF92BF92CF92DF92EF9262
:103A9000FF920F931F93CF93DF93CDB7DEB7A89715
:103AA0000FB6F894DEBF0FBECDBF8C01FB017A01CB
:103AB00096A1923029F0DA0196968C91823069F4C1
:103AC00087A1811102C0F70187A192E0D8019696E3
:103AD0009C93969797968C9352C0913011F08130B9
:103AE00041F4BF01665F7F4FCE0101960E941C1713
:103AF0003EC09330A1F4833001F5668177818085E3
:103B000091850E944E244B015C01F701668177810B
:103B1000808591850E944E246829792924C0C4801B
:103B2000D5808330C1F4FA016681778180859185E3
:103B30000E944E246C297D2916C06681778180857C
:103B400091850E944E24D70114962D913C91159792
:103B5000622B732B08C0DA0114968D919C911597F6
:103B6000B601682B792BCE0101960E94E41688E2FB
:103B7000FE013196D80101900D928A95E1F7C801B6
:103B8000A8960FB6F894DEBF0FBECDBFDF91CF91E0
:103B90001F910F91FF90EF90DF90CF90BF90AF906B
:103BA0009F908F9008950F931F93CF93DF93CDB77E
:103BB000DEB7A8970FB6F894DEBF0FBECDBF8C015D
:103BC000FB0186A1823039F427A191E09227F80108
:103BD00086A397A322C0813039F4665F7F4FCE0160
:103BE00001960E941C1711C0833039F466817781D9
:103BF000808591850E944E2402C064817581609504
:103C00007095CE0101960E94E41688E2FE0131967D
:103C1000D80101900D928A95E1F7C801A8960FB6D8
:103C2000F894DEBF0FBECDBFDF91CF911F910F91F2
:103C300008958F929F92AF92BF92CF92DF92EF92B0
:103C4000FF920F931F93CF93DF93CDB7DEB7A89763
:103C50000FB6F894DEBF0FBECDBF8C01FB017A0119
:103C600096A1923029F0DA0196968C91823031F447
:103C700067A1F70187A1682770E046C0913011F075
:103C8000813041F4BF01665F7F4FCE0101960E94F3
:103C90001C173EC09330B1F4833021F566817781E3
:103CA000808591850E944E244B015C01D7011696B8
:103CB0006D917D918D919C9119970E944E2468255C
:103CC000792522C0C480D5808330C1F4DA011696EC
:103CD0006D917D918D919C9119970E944E246C2538
:103CE0007D2512C066817781808591850E944E2452
:103CF000F701248135816227732706C0FA01848188
:103D00009581B60168277927CE0101960E94E416B5
:103D100088E2FE013196D80101900D928A95E1F773
:103D2000C801A8960FB6F894DEBF0FBECDBFDF91D5
:103D3000CF911F910F91FF90EF90DF90CF90BF90A8
:103D4000AF909F908F900895DF92EF92FF920F9324
:103D50001F93CF93DF93EC017B018A01FB0196A1B6
:103D6000923021F0FA0186A1823041F481E0F7011E
:103D700027A1F80197A1291367C067C0913089F482
:103D8000813039F5BA01665F7F4FC7010A960E94FC
:103D9000FD2C22E02EA321E0892B09F020E02FA3A7
:103DA00057C09330B1F48330D1F4DD24D394FA01B9
:103DB0002681378140855185FB0166817781808529
:103DC00091850E94D7238111D12C82E08EA3DFA29E
:103DD0003FC0F70164817581833079F519C0FA011C
:103DE00064817581072E000C880B990B0E94862434
:103DF0009B01AC0111E0F701668177818085918597
:103E00000E94D723811110E082E08EA31FA320C05F
:103E1000072E000C880B990B0E948624FF24F39434
:103E2000F80126813781408551850E94D723811171
:103E3000F12C82E08EA3FFA20BC081E0F801248167
:103E400035816217730709F080E092E09EA38FA38B
:103E5000CE01DF91CF911F910F91FF90EF90DF90F6
:103E60000895DF92EF92FF920F931F93CF93DF930A
:103E7000EC017B018A01FB0196A1923021F0FA014D
:103E800086A1823031F4F70197A1F80187A1892733
:103E90006AC0913089F4813041F5BA01665F7F4F85
:103EA000C7010A960E94FD2C22E02EA321E0892B57
:103EB00009F420E02FA35AC09330B9F48330D9F429
:103EC000DD24D394FA012681378140855185FB0199
:103ED00066817781808591850E94D723811101C0F9
:103EE000D12C82E08EA3DFA241C0F70164817581ED
:103EF000833089F51AC0FA0164817581072E000CA0
:103F0000880B990B0E9486249B01AC0111E0F701FC
:103F100066817781808591850E94D723811101C0B8
:103F200010E082E08EA31FA321C0072E000C880B97
:103F3000990B0E948624FF24F394F801268137818F
:103F4000408551850E94D723811101C0F12C82E068
:103F50008EA3FFA20BC081E0F80124813581621796
:103F6000730709F480E092E09EA38FA3CE01DF9156
:103F7000CF911F910F91FF90EF90DF900895EF92F6
:103F8000FF920F931F93CF93DF93EC017B018A0184
:103F9000DB0196969C919130C9F0FA0186A181309F
:103FA00049F5911113C0DA011A96FD010190002024
:103FB000E9F73197EA1BFB0BDB0114962D913C913D
:103FC00015972E173F070CF456C054C0D7011A9608
:103FD000FD0101900020E9F73197EA1BFB0B81E01E
:103FE000D80114962D913C911597E217F3070CF424
:103FF00042C040C0933079F4833001F5FA01268144
:10400000378140855185DB0116966D917D918D91AB
:104010009C91199722C0FB0164817581833019F549
:10402000072E000C880B990B0E948624D801169647
:104030002D913D914D915C9119970FC064817581CF
:10404000072E000C880B990B0E9486249B01AC0163
:10405000F70166817781808591850E94D723881F2B
:104060008827881F08C081E0FA0124813581621702
:1040700073070CF080E092E09EA38FA3CE01DF9146
:10408000CF911F910F91FF90EF900895DF92EF92E3
:10409000FF920F931F93CF93DF93EC017B018A0173
:1040A000DB0196969C919130C9F0FA0186A181308E
:1040B00049F5911113C0DA011A96FD010190002013
:1040C000E9F73197EA1BFB0BDB0114962D913C912C
:1040D0001597E217F3070CF06FC06DC0D7011A9661
:1040E000FD0101900020E9F73197EA1BFB0B81E00D
:1040F000D80114962D913C9115972E173F070CF07F
:104100005BC059C09330C9F48330E9F4DD24D39403
:10411000FA012681378140855185DB0116966D9124
:104120007D918D919C9119970E94D72318160CF4BC
:10413000D12C82E08EA3DFA242C0FB016481758195
:10414000833091F519C064817581072E000C880BAE
:10415000990B0E9486249B01AC0111E0F701668156
:104160007781808591850E94D72318160CF410E082
:1041700082E08EA31FA323C0072E000C880B990B8F
:104180000E948624FF24F394D80116962D913D9128
:104190004D915C9119970E94D72318160CF4F12CBD
:1041A00082E08EA3FFA20BC081E0FA012481358159
:1041B000261737070CF480E092E09EA38FA3CE0170
:1041C000DF91CF911F910F91FF90EF90DF900895B5
:1041D000DF92EF92FF920F931F93CF93DF93EC0147
:1041E0007B018A01DB0196969C919130C9F0FA011E
:1041F00086A1813049F5911113C0DA011A96FD01AB
:1042000001900020E9F73197EA1BFB0BDB011496C4
:104210002D913C911597E217F3070CF46FC06DC018
:10422000D7011A96FD0101900020E9F73197EA1BAA
:10423000FB0B81E0D80114962D913C9115972E1718
:104240003F070CF45BC059C09330C9F48330E9F4E4
:10425000DD24D394FA012681378140855185DB0125
:1042600016966D917D918D919C9119970E9436259E
:1042700018160CF0D12C82E08EA3DFA242C0FB0105
:1042800064817581833091F519C064817581072E31
:10429000000C880B990B0E9486249B01AC0111E055
:1042A000F70166817781808591850E9436251816F1
:1042B0000CF010E082E08EA31FA323C0072E000C99
:1042C000880B990B0E948624FF24F394D80116963C
:1042D0002D913D914D915C9119970E9436251816AC
:1042E0000CF0F12C82E08EA3FFA20BC081E0FA015A
:1042F00024813581261737070CF080E092E09EA3D9
:104300008FA3CE01DF91CF911F910F91FF90EF907E
:10431000DF900895DF92EF92FF920F931F93CF9358
:10432000DF93EC017B018A01DB0196969C91913031
:10433000C9F0FA0186A1813049F5911113C0DA0163
:104340001A96FD0101900020E9F73197EA1BFB0B5B
:10435000DB0114962D913C9115972E173F070CF019
:104360006CC06AC0D7011A96FD0101900020E9F7E0
:104370003197EA1BFB0B81E0D80114962D913C91FB
:104380001597E217F3070CF058C056C09330C1F4EC
:104390008330E1F4DD24D394FA012681378140850E
:1043A0005185DB0116966D917D918D919C911997A8
:1043B0000E94362587FDD12C82E08EA3DFA240C06B
:1043C000FB0164817581833081F518C0648175813A
:1043D000072E000C880B990B0E9486249B01AC01D0
:1043E00011E0F70166817781808591850E943625ED
:1043F00087FD10E082E08EA31FA322C0072E000CD1
:10440000880B990B0E948624FF24F394D8011696FA
:104410002D913D914D915C9119970E94362587FD14
:10442000F12C82E08EA3FFA20BC081E0FA0124816F
:104430003581621773070CF480E092E09EA38FA38E
:10444000CE01DF91CF911F910F91FF90EF90DF9000
:1044500008950F931F93CF93DF93CDB7DEB7A8973F
:104460000FB6F894DEBF0FBECDBF8C01FB0186A155
:10447000813039F4665F7F4FCE0101960E941C1790
:1044800013C0833059F44681578160857185F801E6
:10449000468357836087718786A30EC064817581C8
:1044A000CE0101960E94E41688E2FE013196D80101
:1044B00001900D928A95E1F7C801A8960FB6F8947D
:1044C000DEBF0FBECDBFDF91CF911F910F91089539
:1044D0000F931F93CF93DF93CDB7DEB7A8970FB697
:1044E000F894DEBF0FBECDBF8C01FB0186A18130E9
:1044F00039F4665F7F4FCE0101960E941C1717C0EA
:10450000833061F446815781608571857058F80168
:10451000468357836087718786A311C06481758144
:10452000719561957109CE0101960E94E41688E2A9
:10453000FE013196D80101900D928A95E1F7C801EC
:10454000A8960FB6F894DEBF0FBECDBFDF91CF9116
:104550001F910F910895CF93FC0186A18130C9F07E
:10456000823011F4C7A116C0C1E0833061F420E0AD
:1045700030E0A90166817781808591850E94D723EB
:10458000811108C004C084819581892B19F4C0E091
:1045900001C0C1E08C2FCF910895CF93DF93EC0140
:1045A0008EA1813019F4CE010A963BC0823031F4DD
:1045B0008FA1811134C08AE491E033C0FE012A96B4
:1045C0008330C9F481858F9380858F9387818F9302
:1045D00086818F938EE092E09F938F93DF93CF93AA
:1045E0000E945C2D8DB79EB708960FB6F8949EBFBB
:1045F0000FBE8DBF12C085818F9384818F938BE016
:1046000092E09F938F93DF93CF930E945C2D0F9046
:104610000F900F900F900F900F90CE0102C085E485
:1046200091E0DF91CF910895CF93DF93EC01FB01EF
:1046300083A1882311F186A181110AC0440F551F5F
:104640000190F081E02DE40FF51F6081718117C0AA
:10465000833099F4440F551F440F551F0280F38196
:10466000E02DE40FF51F40815181628173814E83FB
:104670005F83688779878EA305C06FEF7FEFCE01D8
:104680000E94E416CE01DF91CF910895DC0193964C
:104690002C919397222341F0660F771FED91FC91A7
:1046A000E60FF71F518340830895DC019396EC9148
:1046B0009397EE2371F0660F771F660F771F1296A0
:1046C000ED91FC911397E60FF71F2083318342830E
:1046D000538308955058BB27AA270E9482230C9425
:1046E000FC240E94EE2438F00E94F52420F039F4D6
:1046F0009F3F19F426F40C94EB240EF4E095E7FBAD
:104700000C94E524E92F0E940D2558F3BA1762078F
:1047100073078407950720F079F4A6F50C942F25EC
:104720000EF4E0950B2EBA2FA02D0B01B9019001CC
:104730000C01CA01A0011124FF27591B99F0593F10
:1047400050F4503E68F11A16F040A22F232F342F58
:104750004427585FF3CF469537952795A795F040A6
:104760005395C9F77EF41F16BA0B620B730B840BBB
:10477000BAF09150A1F0FF0FBB1F661F771F881F73
:10478000C2F70EC0BA0F621F731F841F48F48795CB
:1047900077956795B795F7959E3F08F0B0CF9395BD
:1047A000880F08F09927EE0F9795879508950E9436
:1047B000C12408F481E008950E94F0230C94FC24A5
:1047C0000E94F52458F00E94EE2440F029F45F3F47
:1047D00029F00C94E52451110C9430250C94EB2411
:1047E0000E940D2568F39923B1F3552391F3951B8E
:1047F000550BBB27AA2762177307840738F09F5F02
:104800005F4F220F331F441FAA1FA9F335D00E2E6E
:104810003AF0E0E832D091505040E695001CCAF7DB
:104820002BD0FE2F29D0660F771F881FBB1F26179E
:1048300037074807AB07B0E809F0BB0B802DBF0175
:10484000FF2793585F4F3AF09E3F510578F00C9444
:10485000E5240C9430255F3FE4F3983ED4F386952D
:1048600077956795B795F7959F5FC9F7880F911D65
:104870009695879597F90895E1E0660F771F881F51
:10488000BB1F621773078407BA0720F0621B730B04
:10489000840BBA0BEE1F88F7E09508950E9455240B
:1048A0006894B1110C94302508950E94152588F064
:1048B0009F5798F0B92F9927B751B0F0E1F0660FE4
:1048C000771F881F991F1AF0BA95C9F714C0B13025
:1048D00091F00E942F25B1E008950C942F25672FA9
:1048E000782F8827B85F39F0B93FCCF38695779554
:1048F0006795B395D9F73EF490958095709561953D
:104900007F4F8F4F9F4F0895E89409C097FB3EF467
:1049100090958095709561957F4F8F4F9F4F99230C
:10492000A9F0F92F96E9BB279395F695879577958A
:104930006795B795F111F8CFFAF4BB0F11F460FF4A
:104940001BC06F5F7F4F8F4F9F4F16C0882311F0A2
:1049500096E911C0772321F09EE8872F762F05C0B6
:10496000662371F096E8862F70E060E02AF09A9551
:10497000660F771F881FDAF7880F9695879597F946
:104980000895990F0008550FAA0BE0E8FEEF1616E0
:104990001706E807F907C0F012161306E407F50733
:1049A00098F0621B730B840B950B39F40A2661F0A7
:1049B000232B242B252B21F408950A2609F4A1404A
:1049C000A6958FEF811D811D089597F99F6780E857
:1049D00070E060E008959FEF80EC089500240A9451
:1049E0001616170618060906089500240A941216CA
:1049F0001306140605060895092E0394000C11F4FD
:104A0000882352F0BB0F40F4BF2B11F460FF04C0A9
:104A10006F5F7F4F8F4F9F4F089557FD9058440F02
:104A2000551F59F05F3F71F04795880F97FB991F0D
:104A300061F09F3F79F087950895121613061406CA
:104A4000551FF2CF4695F1DF08C016161706180657
:104A5000991FF1CF86957105610508940895E89432
:104A6000BB2766277727CB0197F908950E94C124B9
:104A700008F48FEF08950E944E250C94FC240E94A8
:104A8000EE2438F00E94F52420F0952311F00C94C8
:104A9000E5240C94EB2411240C9430250E940D2560
:104AA00070F3959FC1F3950F50E0551F629FF00181
:104AB000729FBB27F00DB11D639FAA27F00DB11D9A
:104AC000AA1F649F6627B00DA11D661F829F222723
:104AD000B00DA11D621F739FB00DA11D621F839FAA
:104AE000A00D611D221F749F3327A00D611D231F80
:104AF000849F600D211D822F762F6A2F11249F57CE
:104B000050409AF0F1F088234AF0EE0FFF1FBB1FD0
:104B1000661F771F881F91505040A9F79E3F51058F
:104B200080F00C94E5240C9430255F3FE4F3983E2C
:104B3000D4F3869577956795B795F795E7959F5F39
:104B4000C1F7FE2B880F911D9695879597F90895CB
:104B5000A0E1B0E0EEEAF5E20C9439297C011B01FA
:104B60006A01FC0117821682838181FF44C39E0182
:104B70002F5F3F4F3901F7019381F10193FD85913B
:104B800093FF81911F01882309F431C3853239F4E1
:104B900093FD859193FF81911F01853239F4B7010F
:104BA00090E00E94202D56016501E5CF10E0512CC8
:104BB000912CFFE1F915D8F08B3279F038F480327E
:104BC00079F08332A1F4F92DF0612EC08D3261F0BD
:104BD000803369F4292D21602DC0392D3260932E48
:104BE000892D8460982E2AC0E92DE86015C097FCB5
:104BF0002DC020ED280F2A3088F496FE06C03AE03A
:104C0000139F200D1124122F19C08AE0589E200DE9
:104C10001124522EE92DE0629E2E10C08E3231F406
:104C200096FCE5C2F92DF0649F2E08C08C3621F465
:104C3000292D2068922E02C0883641F4F10193FD9F
:104C4000859193FF81911F018111B3CF9BEB980F49
:104C5000933020F4992D9061805E07C09BE9980FF6
:104C6000933008F066C1992D9F7E96FF16E09F73E2
:104C7000992E853619F49064992E08C0863621F451
:104C8000392F3068932E02C01111115097FE07C0C2
:104C90001C3350F444244394410E27E00BC01830D9
:104CA00038F027E017E005C027E09CE3492E02C05A
:104CB000212F412C560184E0A80EB11CF601608121
:104CC000718182819381042DA3010E94DD2B6C01EF
:104CD000F981FC87F0FF02C0F3FF06C091FC06C01B
:104CE00092FE06C000E205C00DE203C00BE201C067
:104CF00000E08C858C7019F001115AC29BC297FE9E
:104D000010C04C0CFC85F4FF04C08A81813309F487
:104D10004A94141474F528E0241578F588E0482E98
:104D20002CC096FC2AC0812F90E08C159D059CF02C
:104D30003CEFC3163FEFD30674F0892D8068982EA0
:104D40000AC0E2E0F0E0EC0FFD1FE10FF11D8081F1
:104D5000803319F411501111F4CF97FE0EC0442482
:104D60004394410E812F90E0C816D9062CF41C19EB
:104D700004C04424439401C010E097FE06C01C14F4
:104D80001D0434F4C601019605C085E090E002C020
:104D900081E090E001110196112331F0212F30E0E4
:104DA0002F5F3F4F820F931F252D30E0821793070F
:104DB00014F4581A01C0512C892D897049F45520DA
:104DC00039F0B70180E290E00E94202D5A94F7CF8D
:104DD000002329F0B701802F90E00E94202D93FC42
:104DE00009C0552039F0B70180E390E00E94202DE2
:104DF0005A94F7CF97FE4CC04601D7FE02C0812CD3
:104E0000912CC60188199909F301E80FF91FFE8753
:104E1000ED87960124193109388B2F87012F10E077
:104E20001195019511093FEF8316930629F4B701F7
:104E30008EE290E00E94202DC814D9044CF08F859A
:104E400098898815990524F4ED85FE85818101C036
:104E500080E3F1E08F1A91082D853E852F5F3F4F4B
:104E60003E872D87801691062CF0B70190E00E94B6
:104E7000202DD9CFC814D90441F49A81963320F457
:104E8000953319F43C8534FF81E3B70190E04EC0BF
:104E90008A81813319F09C859F7E9C87B70190E0C1
:104EA0000E94202D111105C094FC18C085E690E0E9
:104EB00017C0B7018EE290E00E94202D1E5F82E0B5
:104EC00001E0080FF301E80FF11D8081B70190E0C8
:104ED0000E94202D802F0113F3CFE6CF85E490E0D0
:104EE000B7010E94202DD7FC06C0C114D10441F4A3
:104EF000EC85E4FF05C0D194C194D1088DE201C0D6
:104F00008BE2B70190E00E94202D80E32AE0C216D8
:104F1000D1042CF08F5FFAE0CF1AD108F7CFB70198
:104F200090E00E94202DB701C601C0960E94202D5E
:104F300054C1833631F0833779F0833509F056C098
:104F400020C0560132E0A30EB11CF6018081898396
:104F500001E010E0630112C05601F2E0AF0EB11C97
:104F6000F601C080D18096FE03C0612F70E002C0C0
:104F70006FEF7FEFC6010E940D2D8C01F92DFF7799
:104F800014C0560122E0A20EB11CF601C080D180EF
:104F900096FE03C0612F70E002C06FEF7FEFC60185
:104FA0000E94DE2C8C01F92DF0689F2EF3FD1AC0B3
:104FB000852D90E008171907A8F4B70180E290E06A
:104FC0000E94202D5A94F4CFF60197FC859197FE0C
:104FD00081916F01B70190E00E94202D51105A94E9
:104FE000015011090115110579F7F7C0843611F048
:104FF000893661F5560197FE09C024E0A20EB11C66
:10500000F60160817181828193810AC0F2E0AF0E66
:10501000B11CF60160817181072E000C880B990B81
:10502000F92DFF769F2E97FF09C09095809570957A
:1050300061957F4F8F4F9F4FF0689F2E2AE030E0A1
:10504000A3010E947E2DC82EC6183FC0092D8537AA
:1050500021F40F7E2AE030E01DC0097F8F3691F0E9
:1050600018F4883559F0C3C0803719F0883711F02B
:10507000BEC0006104FF09C0046007C094FE08C000
:10508000066006C028E030E005C020E130E002C044
:1050900020E132E0560107FF09C084E0A80EB11CF0
:1050A000F601608171818281938108C0F2E0AF0EC8
:1050B000B11CF6016081718180E090E0A3010E9443
:1050C0007E2DC82EC6180F77902E96FE0BC0092D88
:1050D0000E7FC11650F494FE0AC092FC08C0092D40
:1050E0000E7E05C0DC2C092D03C0DC2C01C0D12EA6
:1050F00004FF0DC0FE01EC0DF11D8081803311F421
:10510000097E09C002FF06C0D394D39404C0802F47
:10511000867809F0D39403FD11C000FF06C01C2D52
:10512000D51480F4150D1D190DC0D51458F4B70110
:1051300080E290E00E94202DD394F7CFD51410F494
:105140005D1801C0512C04FF10C0B70180E390E04E
:105150000E94202D02FF17C001FD03C088E790E0E8
:1051600002C088E590E0B7010CC0802F867859F026
:1051700001FF02C08BE201C080E207FD8DE2B701B2
:1051800090E00E94202DC11638F4B70180E390E032
:105190000E94202D1150F7CFCA94F301EC0DF11DA0
:1051A0008081B70190E00E94202DC110F5CF15C07D
:1051B000F4E0F51560F584E0581A93FE1FC0011164
:1051C00027C02C8523FF2AC004E510E0392D30715B
:1051D000932EF8018491811124C0552009F4E4CC68
:1051E000B70180E290E00E94202D5A94F6CFF7019B
:1051F0008681978126C08FEF9FEF23C0B70180E2A1
:1052000090E00E94202D5A945110F8CFD8CF512C05
:10521000B701802F90E00E94202DD3CF08E510E049
:10522000D5CF91108052B70190E00E94202D0F5FE2
:105230001F4FCFCF23E0251510F483E0BDCF512CB5
:10524000C0CF6096E2E10C94552997FB072E16F427
:10525000009407D077FD09D00E94702907FC05D083
:105260003EF4909581959F4F0895709561957F4F7D
:1052700008952F923F924F925F926F927F928F92FA
:105280009F92AF92BF92CF92DF92EF92FF920F93D5
:105290001F93CF93DF93CDB7DEB7CA1BDB0B0FB6DF
:1052A000F894DEBF0FBECDBF09942A88398848889C
:1052B0005F846E847D848C849B84AA84B984C88432
:1052C000DF80EE80FD800C811B81AA81B981CE0F29
:1052D000D11D0FB6F894DEBF0FBECDBFED0108950E
:1052E000AA1BBB1B51E107C0AA1FBB1FA617B7070C
:1052F00010F0A61BB70B881F991F5A95A9F7809528
:105300009095BC01CD0108950F931F93CF93DF9328
:105310008230910510F482E090E0E0918402F091F7
:10532000850220E030E0A0E0B0E0309719F1408144
:1053300051810281138148175907C8F084179507D6
:1053400069F4109731F012960C93129713961C93F0
:1053500027C0009384021093850222C021153105D5
:1053600019F04217530718F49A01BD01EF01DF014C
:10537000F801DBCF21153105F9F0281B390B24305A
:10538000310580F48A819B816115710521F0FB0153
:105390009383828304C09093850280938402FE01EC
:1053A000329644C0FE01E20FF31F81939193225085
:1053B0003109398328833AC02091820230918302D7
:1053C000232B41F4209162003091630030938302DB
:1053D00020938202209160003091610021153105F7
:1053E00041F42DB73EB74091640050916500241BF5
:1053F000350BE0918202F0918302E217F307A0F4EB
:105400002E1B3F0B2817390778F0AC014E5F5F4F1A
:105410002417350748F04E0F5F1F509383024093C7
:1054200082028193919302C0E0E0F0E0CF01DF912E
:10543000CF911F910F910895CF93DF93009709F4B7
:1054400081C0FC01329713821282A0918402B09134
:105450008502109781F420813181820F931F209162
:105460008202309183022817390751F5F0938302A5
:10547000E093820267C0ED0120E030E0CE17DF0745
:1054800040F44A815B819E0141155105F1F0EA012A
:10549000F5CFD383C28340815181840F951FC817F4
:1054A000D90759F488819981840F951F02969183B9
:1054B00080838A819B81938382832115310529F41E
:1054C000F0938502E09384023DC0E901FB83EA8307
:1054D00049915991C40FD51FEC17FD0761F48081E4
:1054E0009181840F951F0296E901998388838281B7
:1054F00093819B838A83E0E0F0E012968D919C91EA
:105500001397009719F0FD01DC01F7CF8D919C9165
:1055100011979D012E5F3F4F820F931F20918202B2
:10552000309183022817390769F4309729F41092D3
:1055300085021092840202C013821282B093830209
:10554000A0938202DF91CF910895A0E0B0E0EBEA52
:10555000FAE20C943A295C016B017A01611571053C
:1055600019F0FB0191838083E114F10429F0C70154
:105570000297839708F0E5C0E5012196F5011081B7
:10558000812F90E00E94CD2C892B11F05E01F4CF89
:105590001D3229F42196F501118101E007C01B326B
:1055A00021F4E5012296F501118100E0E114F104F6
:1055B00009F1F0E1EF16F10429F43FC010E3E11422
:1055C000F10421F128E0E216F10401F154F4E2E0E3
:1055D000EE16F10421F5812C912CA12CB0E4BB2E08
:1055E0003EC0FAE0EF16F10439F020E1E216F104D2
:1055F000B1F430C0103319F1FAE0EF2EF12CACEC1D
:105600008A2E982CA82CACE0BA2E29C078E0E72E80
:10561000F12C812C912CA12CE0E1BE2E20C060E069
:1056200070E080E090E897010F2C000C440B550BC4
:105630000E94672F49015A0112C0103359F4888122
:105640008F7D883509F0BACF19812296026080E1FA
:10565000E82EF12C812C912CA12C68E0B62E40E094
:1056600060E070E0CB0127010F2C000C6608770882
:10567000FE0150ED352E310E29E0231570F42FEB8D
:10568000210F2A3118F439EC332E06C02FE9210FEF
:105690002A3118F529EA322E310E232D30E02E154D
:1056A0003F05DCF447FD16C086169706A806B90626
:1056B00070F0A30192010E94572F630D711D811D8F
:1056C000911D61307105810520E8920710F04FEFC0
:1056D00001C041E021961081CBCF202F2170C11451
:1056E000D10471F0442329F02197F601D183C083BE
:1056F00007C001FF19C02297F601D183C08314C0EF
:1057000047FF12C0222329F060E070E080E090E8BB
:1057100004C06FEF7FEF8FEF9FE722E230E030931E
:1057200087022093860209C0222381F090958095FC
:10573000709561957F4F8F4F9F4F462F372F282FA2
:1057400012C040E030E020E090E00DC097FFF5CFC0
:1057500082E290E090938702809386026FEF7FEF62
:105760008FEF9FE7EACF642F732F822FCDB7DEB77D
:10577000E1E10C945629662777270C94DC2DFC0177
:1057800088279927E89421912032E9F3293010F0F5
:105790002E30C8F32B3241F02D3239F4689404C016
:1057A0000E94182D820F911D219120532A30C0F3A1
:1057B0001EF4909581959F4F0895283008F027E0BA
:1057C0003327DA01990F311D87FD9160009661053D
:1057D000710539F432602E5F3D9330E32A95E1F78D
:1057E00008959F3F30F080387105610509F03C5FF6
:1057F0003C5F3D93913008F08068911DDF93CF931B
:105800001F930F93FF92EF92192F987F9695E92F90
:1058100096959695E90FFF27EA54FF4F992733276E
:10582000EE24FF24A701E70105900894079428F4CB
:10583000360FE71EF81E491F511D660F771F881F80
:10584000991F0694A1F70590079428F4E70EF81E17
:10585000491F561FC11D770F881F991F661F069489
:10586000A1F70590079428F4F80E491F561FC71F8B
:10587000D11D880F991F661F771F0694A1F7059009
:10588000079420F4490F561FC71FD81F990F661F92
:10589000771F881F0694A9F784911095177041F01F
:1058A000D695C79557954795F794E7941A95C1F7FC
:1058B000ECE5F0E06894159015913591659195911E
:1058C00005907FE27395E118F10A430B560BC90B63
:1058D000D009C0F7E10CF11E431F561FC91FD01D90
:1058E0007EF4703311F48A95E6CFE894015030F0DD
:1058F000080F0AF40027021708F4202F2395022F1F
:105900007A3328F079E37D932A95E9F710C07D93E7
:105910002A9589F606949795679537951795179464
:10592000E118F10A430B560BC90BD00998F02395E7
:105930007E9173957A3308F070E37C932013B8F767
:105940007E9170617D9330F0839571E37D9370E378
:105950002A95E1F71124EF90FF900F911F91CF91BD
:10596000DF91992787FD9095089591110C94BF2C94
:1059700080538A5018F0865C0C94C52C08959927A2
:105980008827089585FD0C94BF2C806291110C949A
:10599000BF2C81568A51D8F7089591110C94BF2CD1
:1059A000803219F089508550C8F7089591110895F3
:1059B00081568A5108F4805285580895FC0105905B
:1059C000615070400110D8F7809590958E0F9F1F01
:1059D0000895FB01DC0102C001900D92415050403E
:1059E000D8F70895FB01DC010D900020E9F711972D
:1059F00001900D920020E1F70895FB01DC018D91EB
:105A0000019080190110D9F3990B0895FB01DC0175
:105A100001900D920020E1F70895FC016150704063
:105A200001900110D8F7809590958E0F9F1F0895D3
:105A30007AE0979F902D879F802D910D11240895D6
:105A40000F931F93CF93DF93FB01238121FD03C0AD
:105A50008FEF9FEF2CC022FF16C046815781248113
:105A600035814217530744F4A081B1819D012F5F16
:105A70003F4F318320838C93268137812F5F3F4FA7
:105A80003783268314C08B01EC01FB010084F18570
:105A9000E02D0995892BE1F6D80116968D919C9100
:105AA0001797019617969C938E931697CE01DF91C8
:105AB000CF911F910F910895AEE0B0E0E2E6FDE2D4
:105AC0000C9447290D891E8986E08C831A830983EB
:105AD0008FEF9FE79E838D83AE01475E5F4F6F8997
