S00E00006363313238342E7372656381
S1130000E4C000000DC100000BC1000009C10000E4
S113001007C1000005C1000003C1000001C10000C8
S1130020FFC00000FDC00000FBC00000F9C00000DC
S1130030F7C00000F5C00000F3C00000F1C00000EC
S1130040EFC00000EDC00000EBC00000E9C00000FC
S11300500C94C418E5C00000E3C00000E1C0000037
S1130060DFC00000DDC00000DBC00000D9C000001C
S11300700C94F818D5C00000D3C00000D1C0000013
S1130080CFC00000CDC00000CBC000006E616E0088
S1130090696E660000407A10F35A00A0724E180987
S11300A00010A5D4E80000E87648170000E40B54DB
S11300B0020000CA9A3B000000E1F50500008096AA
S11300C09800000040420F000000A08601000000DC
S11300D0102700000000E803000000006400000096
S11300E000000A00000000000100000000002C765F
S11300F0D888DC674F0823DFC1DFAE59E1B1B7967A
S1130100E5E3E453C63AE651997696E8E6C28426D6
S1130110EB898C9B62ED407C6FFCEFBC9C9F40F2B2
S1130120BAA56FA5F490055A2AF75C936B6CF9672E
S11301306DC11BFCE0E40D47FEF520E6B500D0EDF3
S1130140902E0300943577050080841E080000205B
S11301504E0A000000C80C333333330F986E1283F9
S11301601141EF8D2114893BE65516CFFEE6DB18CD
S1130170D1844B381BF77C1D901DA4BBE424203292
S113018084725E228100C9F124ECA1E53D274E4131
S11301904E494E495459494E46CDCCCC3D0AD723FD
S11301A03C17B7D13877CC2B329595E6241FB14F45
S11301B00A000020410000C84200401C4620BCBE8A
S11301C04CCA1B0E5AAEC59D740011241FBECFEF3E
S11301D0D0E4DEBFCDBF14BE0FB6F894A8958091CD
S11301E06000886180936000109260000FBE13E08D
S11301F0A0E0B1E0E6E4F9E600E00BBF02C007903E
S11302000D92A835B107D9F724E0A8E5B3E001C001
S11302101D92A833B207E1F70E94F8170C94A13499
S1130220EFCE40910601382F3170282F2270982F7D
S1130230947088704423A9F0332311F0149A01C0F8
S11302401498222311F0159A01C01598992311F0DE
S1130250169A01C01698882311F0179A08951798D2
S11302600895332311F02C9A01C02C98222311F005
S11302702D9A01C02D98992311F02E9A01C02E9821
S1130280882311F02F9A08952F98089590910601CC
S1130290882331F0992311F0129A08952A9A089527
S11302A0992311F0129808952A98089590910601BF
S11302B0882331F0992311F0119A0895299A089509
S11302C0992311F0119808952998089590910601A1
S11302D0882331F0992311F0109A0895289A0895EB
S11302E0992311F01098089528980895CF93C82F52
S11302F0862FECDF80E0DADF8CEC9CE10197F1F7EC
S113030000C0000081E0C2DF8CEC9CE10197F1F7B2
S113031000C000008C2F82958F7083DF8CEC9CE1F1
S11303200197F1F700C0000080E0B0DF8CEC9CE1A5
S11303300197F1F700C0000081E0A8DF8CEC9CE19C
S11303400197F1F700C000008C2F8F706ADF86E6FA
S11303509EE00197F1F7000080E098DF8CEC9CE1CF
S11303600197F1F700C00000CF9108958093060132
S1130370882319F08FEF81B902C08FEF84B980917F
S11303800601882311F012B801C015B860E082E0BC
S1130390ADDF60E08CE0AADF60E081E0A7DF60E031
S11303A086E0A4DF2FEF8FE794E021508040904057
S11303B0E1F700C000000895CF93DF93EC01899129
S11303C0882319F061E092DFFACFDF91CF9108958D
S11303D060E081E08BCF9B01892B09F0206460E011
S11303E0822F806883CFEF92FF920F931F93CF9356
S11303F0DF93EC018C0107531F4F7C018EEDE81A4B
S113040088EFF80AC8010E949E1B0F5B1F4F0E1550
S11304101F05C1F7CE018057984F0E949E1B81E0B3
S11304208883CA57D84F19821882DF91CF911F91C0
S11304300F91FF90EF900895FC018081E857F84FE9
S1130440811106C080819181860F971F0C944134DD
S113045080819181FC01E60FF71F808108950F933D
S11304601F93CF93DF938C01EB0160E070E080E099
S113047090E0B1DFADDF87E091E09EDF60E070E007
S113048081E090E0A8DF8881811106C0C80180570F
S1130490984F0E94F62701C0CE018EDF87E091E0DD
S11304A00E942C198881811106C0C8018057984F79
S11304B00E94F62701C0CE010E942C1983E393E029
S11304C00E942C19F801808181110BC098E088E109
S11304D00FB6F894A895809360000FBE90936000C7
S11304E0FFCFDF91CF911F910F910895CF93DF93A9
S11304F0FC01E657F84F608171816F5F7F4F718314
S11305006083329620813181EC01C257D84F621743
S1130510730714F0188202C08FDF8883DF91CF91B4
S11305200895FC01E657F84F608171816F5F7F4F3A
S1130530329620813181621773070CF47DCF80E0FD
S113054008950F931F93CF93DF93EC018C0102570F
S1130550184FF8018081882341F090E00E94B8315F
S1130560892B19F0CE01C2DFF4CFDF91CF911F9117
S11305700F9108956F927F928F929F92AF92BF9244
S1130580CF92DF92EF92FF920F931F93CF93DF935B
S1130590CDB7DEB7C759D1090FB6F894DEBF0FBE89
S11305A0CDBF5C016B017E0184E8E80EF11C4701BC
S11305B03B01A2E76A1AA8EF7A0A84010E191F09FF
S11305C0F301808190ED980F9A3030F4D4018D932B
S11305D04D01C6018BDFF1CFF701E00FF11F8E3221
S11305E051F58083C60182DF0F5F1F4F0E0D1F1D63
S11305F0F801EE19FF09D3018C9190ED980F9A3010
S113060030F4F80181938F01C60170DFF1CFEE0D54
S1130610FF1D1082CE0102960E949E1B8BE28983ED
S1130620C7010E94AC30AB01BC01CE018D5B9F4F72
S11306300E94EA1B10C01082CE0102960E949E1BEB
S113064083E28983C7010E94AF30BC01CE018D5B78
S11306509F4F0E949F1B81E4FE01ED5BFF4FDE0173
S1130660129601900D928A95E1F782E4FE0131968B
S1130670D50101900D928A95E1F7C501C956DF4F66
S11306800FB6F894DEBF0FBECDBFDF91CF911F919F
S11306900F91FF90EF90DF90CF90BF90AF909F901D
S11306A08F907F906F9008958F929F92AF92BF9298
S11306B0CF92DF92EF92FF920F931F93CF93DF932A
S11306C0CDB7DEB7C555D1090FB6F894DEBF0FBE5E
S11306D0CDBF7C014B018E010E5B1F4F68015B0196
S11306E082E7A81A88EFB80AF601E01BF10BD501DE
S11306F08C91882389F0282F30E0205331092A3047
S1130700310520F09FEB980F963030F4F601819379
S11307106F01C401EBDEE8CFE00FF11F1082670127
S1130720FFEFCF1ADF0AC6010E949E1B83E2D701A6
S11307308C9340E150E060E070E0C8010E94812F9A
S1130740CE0101960E949F1B81E4FE013196D601E1
S113075001900D928A95E1F7C701CB5ADF4F0FB68E
S1130760F894DEBF0FBECDBFDF91CF911F910F91E3
S1130770FF90EF90DF90CF90BF90AF909F908F90BD
S113078008953F924F925F926F927F928F929F92C1
S1130790AF92BF92CF92DF92EF92FF920F931F938B
S11307A0CF93DF93CDB7DEB7C357D1090FB6F89413
S11307B0DEBF0FBECDBF5C018B016E0182E4C80EAB
S11307C0D11C36017B01E2E7EE1AE8EFFE0A8DE068
S11307D0482E9AE0392E29E0522E43018C189D08A8
S11307E0F7018081882349F1823271F4C80199DECE
S11307F0823219F5C8017ADEF7018081F301819311
S11308003F01C80173DEE9CF8C35B1F7C80189DE39
S1130810823749F08E3661F0843771F7C80166DE9D
S1130820F7015082E9CFC80161DEF7014082E4CFCD
S1130830C8015CDEF7013082DFCFC80157DEF60164
S1130840E80DF91D108285010F5F1F4FC8010E943A
S11308509E1B84E2F5018083B601CE0101960E94BD
S1130860D71B81E4FE013196D80101900D928A953F
S1130870E1F7C501CD58DF4F0FB6F894DEBF0FBEC8
S1130880CDBFDF91CF911F910F91FF90EF90DF903B
S1130890CF90BF90AF909F908F907F906F905F901C
S11308A04F903F9008958F929F92AF92BF92CF92B4
S11308B0DF92FF920F931F93CF93DF938C015B0121
S11308C06C01EB01FE01EA19FB09F990FF2089F0A4
S11308D0F60181916F0190E00E94C0314C018F2D8F
S11308E090E00E94C0318816990661F381E090E09F
S11308F008C0E00FF11F81E090E02081211101C0C8
S113090080E0DF91CF911F910F91FF90DF90CF9006
S1130910BF90AF909F908F9008953F924F925F92B7
S11309206F927F928F929F92AF92BF92CF92DF92FB
S1130930EF92FF920F931F93CF93DF93CDB7DEB760
S1130940C357D1090FB6F894DEBF0FBECDBF8C01DB
S11309505B0101960E949E1B7E0182E4E80EF11C5D
S113096037012501E2E74E1AE8EF5E0A6301CE186B
S1130970DF08F2013080332039F1832C912CC4013B
S11309800E94A431892B91F0C4010E94B131892BBA
S113099029F0C4010E94C031F2018083F2018081F8
S11309A0F30181933F01C501A1DDE0CFFAE33F12DA
S11309B00BC0C5019BDDF701EC0DFD1D108283E327
S11309C0F8018083B701E0C3F701EC0DFD1D10822F
S11309D06DE071E0C70167DF892B31F48DE2F80126
S11309E0808361E070E09DC263E171E0C7015BDF79
S11309F0892B31F48DE2F801808362E070E091C2CA
S1130A0067E171E0C7014FDF892B31F48DE2F80112
S1130A10808363E070E085C26EE171E0C70143DF6B
S1130A20892B31F48DE2F80180836EE170E079C2A4
S1130A3061E271E0C70137DF892B31F48DE2F801FF
S1130A40808363E270E06DC26FE071E0C7012BDF69
S1130A50892B31F48DE2F801808364E270E061C295
S1130A6065E271E0C7011FDF892B31F48DE2F801E3
S1130A70808366E270E055C26AE271E0C70113DF69
S1130A80892B31F48DE2F801808365E270E049C27C
S1130A906EE271E0C70107DF892B31F48DE2F801C2
S1130AA0808364E070E03DC266E371E0C701FBDE71
S1130AB0892B31F48DE2F801808365E070E031C266
S1130AC06DE371E0C701EFDE892B31F48DE2F801AB
S1130AD0808366E070E025C263E471E0C701E3DE71
S1130AE0892B31F48DE2F801808367E070E019C24C
S1130AF068E471E0C701D7DE892B31F48DE2F80197
S1130B0080836BE070E00DC26EE471E0C701CBDE60
S1130B10892B31F48DE2F80180836FE070E001C22B
S1130B2063E571E0C701BFDE892B31F48DE2F80182
S1130B30808368E070E0F5C168E571E0C701B3DE69
S1130B40892B31F48DE2F801808369E070E0E9C11A
S1130B506DE571E0C701A7DE892B31F48DE2F80160
S1130B6080836AE070E0DDC162E671E0C7019BDE6C
S1130B70892B31F48DE2F80180836CE070E0D1C1FF
S1130B8068E671E0C7018FDE892B31F48DE2F8014C
S1130B9080836DE070E0C5C16EE671E0C70183DE5D
S1130BA0892B31F48DE2F80180836EE070E0B9C1E5
S1130BB064E771E0C70177DE892B31F48DE2F80137
S1130BC0808360E170E0ADC169E771E0C7016BDE6D
S1130BD0892B31F48DE2F801808361E170E0A1C1D9
S1130BE06EE771E0C7015FDE892B31F48DE2F80115
S1130BF0808362E170E095C163E871E0C70153DE70
S1130C00892B31F48DE2F80180836AE170E089C1B7
S1130C106CE871E0C70147DE892B31F48DE2F801FD
S1130C2080836BE170E07DC162E971E0C7013BDE66
S1130C30892B31F48DE2F801808362E270E071C1A6
S1130C406BE971E0C7012FDE892B31F48DE2F801E5
S1130C5080836CE170E065C163EA71E0C70123DE63
S1130C60892B31F48DE2F80180836DE170E059C184
S1130C706BEA71E0C70117DE892B31F48DE2F801CC
S1130C80808363E170E04DC163EB71E0C7010BDE6B
S1130C90892B31F48DE2F801808364E170E041C175
S1130CA069EB71E0CE018E5B9F4FFDDD892B31F442
S1130CB08DE2F801808365E170E033C162EC71E09C
S1130CC0CE018E5B9F4FEFDD892B31F48DE2F8016D
S1130CD080836FE170E025C16BEC71E0CE018E5B27
S1130CE09F4FE1DD892B31F48DE2F801808361E2CD
S1130CF070E017C163ED71E0CE018E5B9F4FD3DDD1
S1130D00892B31F48DE2F801808360E270E009C13F
S1130D106CED71E0CE018E5B9F4FC5DD892B31F404
S1130D208DE2F801808366E170E0FBC067EE71E05C
S1130D30CE018E5B9F4FB7DD892B31F48DE2F80134
S1130D40808367E170E0EDC06FE072E0CE018E5BFE
S1130D509F4FA9DD892B31F48DE2F801808369E18D
S1130D6070E0DFC060EF71E0CE018E5B9F4F9BDDD2
S1130D70892B31F48DE2F801808368E170E0D1C001
S1130D8067EF71E0CE018E5B9F4F8DDD892B31F4CF
S1130D908DE2F801808367E270E0C3C061E072E035
S1130DA0CE018E5B9F4F7FDD892B31F48DE2F801FC
S1130DB0808368E270E0B5C06AE072E0CE018E5BC9
S1130DC09F4F71DD892B31F48DE2F801808369E254
S1130DD070E0A7C066E172E0CE018E5B9F4F63DDD9
S1130DE0892B31F48DE2F80180836AE270E099C0C6
S1130DF061E272E0CE018E5B9F4F55DD892B31F4A9
S1130E008DE2F80180836EE270E08BC06BE272E0E9
S1130E10CE018E5B9F4F47DD892B31F48DE2F801C3
S1130E20808360E370E07DC064E372E0CE018E5B9A
S1130E309F4F39DD892B31F48DE2F80180836FE215
S1130E4070E06FC06EE372E0CE018E5B9F4F2BDDCE
S1130E50892B31F48DE2F801808365E370E061C091
S1130E606AE472E0CE018E5B9F4F1DDD892B31F465
S1130E708DE2F80180836BE270E053C066E772E0B4
S1130E80CE018E5B9F4F0FDD892B31F48DE2F8018B
S1130E9080836DE270E045C064E572E0CE018E5B54
S1130EA09F4F01DD892B31F48DE2F80180836CE2E0
S1130EB070E037C06CE572E0CE018E5B9F4FF3DCCF
S1130EC0892B31F48DE2F801808361E370E029C05D
S1130ED067E672E0CE018E5B9F4FE5DC892B31F42F
S1130EE08DE2F801808362E370E01BC061E772E089
S1130EF0CE018E5B9F4FD7DC892B31F48DE2F80154
S1130F00808363E370E00DC06EE772E0CE018E5B18
S1130F109F4FC9DC892B51F48DE2F801808364E38F
S1130F2070E0CE0101960E949F1B32C16AE872E014
S1130F30CE018E5B9F4FB7DC892B29F485E2F80143
S1130F40808361E00CC06FE872E0CE018E5B9F4F3E
S1130F50AADC892B49F485E2F801808360E0CE01A4
S1130F6001960E94E21B14C165E972E0CE018E5B1A
S1130F709F4F99DC892B31F489E2F801808365E97C
S1130F8072E002C169E972E0CE018E5B9F4F8BDC97
S1130F90892B31F48AE2F801808369E972E0F4C0B4
S1130FA06DE972E0CE018E5B9F4F7DDC892B31F4BD
S1130FB08EE0F80180836DE972E0E6C061EA72E0D8
S1130FC0CE018E5B9F4F6FDC892B31F487E0F801F3
S1130FD0808361EA72E0D8C06FEC72E0CE018E5B70
S1130FE09F4F61DC892B31F488E0F80180836FEC3A
S1130FF072E0CAC065EA72E0CE018E5B9F4F53DC9B
S1131000892B31F48EE0F801808365EA72E0BCC07C
S113101069EA72E0CE018E5B9F4F45DC892B31F487
S11310208AE0F801808369EA72E0AEC06CEA72E09B
S1131030CE018E5B9F4F37DC892B31F48CE0F801B5
S113104080836CEA72E0A0C061EB72E0CE018E5B3B
S11310509F4F29DC892B31F487E2F801808361EB0F
S113106072E092C067EB72E0CE018E5B9F4F1BDC97
S1131070892B31F488E2F801808367EB72E084C045
S11310806CEB72E0CE018E5B9F4F0DDC892B31F44B
S113109088E1F80180836CEB72E076C063EC72E067
S11310A0CE018E5B9F4FFFDB892B31F482E3F80185
S11310B0808363EC72E068C069EC72E0CE018E5B01
S11310C09F4FF1DB892B31F48BE0F801808369ECCD
S11310D072E05AC06EEC72E0CE018E5B9F4FE3DB90
S11310E0892B31F48EE2F80180836EEC72E04CC0FF
S11310F062ED72E0CE018E5B9F4FD5DB892B31F41C
S11311008FE2F801808362ED72E03EC065ED72E02B
S1131110CE018E5B9F4FC7DB892B31F48CE2F80143
S1131120808365ED72E030C068ED72E0CE018E5BC5
S11311309F4FB9DB892B31F480E3F801808368ED9C
S113114072E022C06DED72E0CE018E5B9F4FABDB8F
S1131150892B31F481E3F80180836DED72E014C0D2
S113116068EB72E0CE018E5B9F4F9DDB892B31F4DF
S113117082E2F801808368EB72E006C08DE0F8013A
S11311808083BE016E5B7F4FCE0101960E94D71B08
S113119081E4FE013196D801119601900D928A9551
S11311A0E1F7C801CD58DF4F0FB6F894DEBF0FBE8C
S11311B0CDBFDF91CF911F910F91FF90EF90DF9002
S11311C0CF90BF90AF909F908F907F906F905F90E3
S11311D04F903F9008958F929F92AF92BF92DF926B
S11311E0EF92FF920F931F93CF93DF93CDB7DEB7A8
S11311F0C358D1090FB6F894DEBF0FBECDBF7C0132
S11312008B01CE0102960E949E1B580182E7A81A08
S113121088EFB80AF501D080DD2009F41DC18D2CBA
S1131220912CC4010E94B831892BB1F0FDE0DF1686
S113123021F08AE0D8120DC006C0C80172D98A30E4
S113124011F4C80153D9C80151D987E189836AE0EF
S113125006C1C80176D9DECFC401C0970A9720F42D
S1131260B801C70187D91AC1E2E2DE1206C0C8017B
S11312703DD9B801C70185DA11C1C4010E94A43166
S1131280892B21F0B801C70148DB08C1F6E2DF125F
S11312900BC0C80146D9883409F4F9C0C80126D95D
S11312A089E1898366E2DBC08DE3D81206C0C801F8
S11312B01DD983E189836DE3D2C0ECE2DE1206C05E
S11312C0C80114D98AE189836CE2C9C0F5E2DF124E
S11312D006C0C8010BD982E0898365E2C0C08AE3F5
S11312E0D81206C0C80102D98BE189836AE3B7C06A
S11312F0ECE3DE1227C0C80114D98E3349F4C801C7
S1131300F5D8C801F3D884E1898362EE72E075C030
S11313108D3349F4C801EAD8C801E8D881E189834A
S113132065EE72E06AC08C3349F4C801DFD8C801A5
S1131330DDD885E0898368EE72E05FC0C801D6D845
S113134080E11EC0FEE3DF121EC0C801EAD88D335F
S113135049F4C801CBD8C801C9D882E189836BEEAE
S113136072E04BC08E3349F4C801C0D8C801BED85E
S113137086E089836EEE72E040C0C801B7D88FE082
S113138089836CE36CC08BE2D81212C0C801AED85A
S1131390F50180818D3339F4C801A8D88CE18983A3
S11313A061EF72E02AC083E0898364EF72E025C0B4
S11313B0FDE2DF1211C0C80199D8F50180818D3397
S11313C039F4C80193D88DE1898366EF72E015C0C2
S11313D081E089836DE243C0FEE5DF1206C0C801E7
S11313E085D88EE189836EE53AC08AE2D8120BC0B3
S11313F0C8017CD8198269EF72E0CE018D5B9F4FE2
S11314000E94D71B31C0EFE2DE1206C0C8016ED8BD
S113141084E089836FE223C0FCE5DF1206C0C801C3
S113142065D88FE189836CE51AC088E2D81206C0BA
S1131430C8015CD880E2898368E211C0E9E2DE1267
S113144006C0C80153D881E2898369E208C06BEF02
S113145072E0C80104D8DECE82E2898360E0CE0166
S11314608D5B9F4F0E94BA1B81E4FE01ED5BFF4F31
S1131470DE01129601900D928A95E1F782E4FE0155
S11314803196D70101900D928A95E1F707C0C80102
S11314902DD8C8012BD8B801C70106D9C701CD572B
S11314A0DF4F0FB6F894DEBF0FBECDBFDF91CF91F3
S11314B01F910F91FF90EF90DF90BF90AF909F909E
S11314C08F9008950F931F93CF93DF93CDB7DEB71B
S11314D0C254D1090FB6F894DEBF0FBECDBF8C0144
S11314E00157184FF8012081261318C0BC01CE0102
S11314F0019671DE82E4FE013196D80101900D92CD
S11315008A95E1F7CE5BDF4F0FB6F894DEBF0FBECE
S1131510CDBFDF91CF911F910F91089562E173E0E8
S1131520CE5BDF4F0FB6F894DEBF0FBECDBFDF91A9
S1131530CF911F910F910C942F028F929F92AF9293
S1131540BF92CF92DF92EF92FF920F931F93CF93AC
S1131550DF93CDB7DEB76E970FB6F894DEBF0FBE3C
S1131560CDBF7C016B01942E852E5B018FEFA81AF1
S1131570B80A00E010E0692D782DC5010E94E7311A
S1131580892BF9F00F5F1F4F98E0A90EB11C0931A8
S1131590110589F78F929F9281E293E09F938F9335
S11315A0CE0101965C019F938F930E944632B50150
S11315B0C6010E942F020F900F900F900F900F9072
S11315C00F9081E4809FF001819FF00D1124EC0DB8
S11315D0FD1DE753FF4FD70101900D928A95E1F766
S11315E0C7016E960FB6F894DEBF0FBECDBFDF9174
S11315F0CF911F910F91FF90EF90DF90CF90BF900C
S1131600AF909F908F900895AF92BF92CF92DF9248
S1131610EF92FF920F931F93CF93DF93CDB7DEB773
S11316208C016B015C018FEFA81AB80AE12CF12C34
S1131630B601C5010E94E731892B39F481E48E9DFE
S1131640D0018F9DB00D11242AC0EFEFEE1AFE0ACF
S1131650F8E0AF0EB11C89E1E816F10449F778010E
S1131660EAE7EE1AE8EFFE0AF7018081918123E0B0
S1131670880F991F2A95E1F70196B601800F911FF3
S11316800E94F031F70120813181C90101969183D3
S1131690808381E4829FD001839FB00D1124A00F29
S11316A0B11FA753BF4FFE013D9601900D928A953D
S11316B0E1F781E0DF91CF911F910F91FF90EF90BF
S11316C0DF90CF90BF90AF90089580E090E08617B0
S11316D097073CF4E6E6FEE03197F1F70000019647
S11316E0F6CF08950F931F93CF93DF938B01CB0114
S11316F00E944134C0E0D0E0882339F02196C8012B
S11317008C0F9D1F0E944134F7CFCE01DF91CF9102
S11317101F910F910895AF92BF92CF92DF92EF92F3
S1131720FF920F931F93CF93DF93CDB7DEB7C254CD
S1131730D1090FB6F894DEBF0FBECDBF8C016B018B
S11317407C0189ECE80EF11C5801EEEDAE1AE8EFCD
S1131750BE0AC7010E949E1BF1E4EF0EF11CEA14BD
S1131760FB04B9F7780181E7E81A88EFF80AC701A2
S113177001960E949E1BF8011082E857F84FD1820F
S1131780C082329611821082B601C801ABDFF80123
S1131790E457F84F91838083C6010E944134F801D5
S11317A0E257F84F8083B801CE01019614DD82E43C
S11317B0FE013196D70101900D928A95E1F7F80167
S11317C0EA57F84F11821082CE5BDF4F0FB6F894C0
S11317D0DEBF0FBECDBFDF91CF911F910F91FF9060
S11317E0EF90DF90CF90BF90AF900895CF93DF93A9
S11317F000D0CDB7DEB7809132049091330421E05C
S113180030E0009711F020E030E0AE014F5F5F4F11
S11318104217530711F088E394E00F900F90DF9183
S1131820CF910895AF92BF92CF92DF92EF92FF9241
S11318300F931F93CF93DF93CDB7DEB7C35CD1096A
S11318400FB6F894DEBF0FBECDBF6C018B01ADB6F1
S1131850BEB6FB01EC56F84FE080F1806DE2C801A2
S113186031DE60E2C8012EDE21E0E216F104E9F483
S1131870B801CE0101966CD661E2C80123DECE0127
S113188001960E94F6270E94DC01F80180818823DA
S113189009F43FC4CE0101960E94F6270E942C1938
S11318A082E393E00E942C1934C4F4E0EF16F104AF
S11318B039F461E2C80106DEC80198DFBC0125C421
S11318C025E0E216F10471F461E2C801FBDD98E061
S11318D088E10FB6F894A895809360000FBE9093AA
S11318E06000FFCF33E0E316F10449F4B801CE0100
S11318F001962ED66EAD7FAD61507109B6C086E0FB
S1131900E816F10461F4B801CE01019621D661E232
S1131910C801D8DD6D817E81C801D7DEFAC39EE19E
S1131920E916F10409F045C0B801CE018D579F4F67
S11319300FD66AE1C801C6DDB801CE018E5B9F4FA8
S113194007D66AE1C801BEDDB801CE01019600D612
S1131950ED80FE8061E2C801B5DDC7010196EDB7F7
S1131960FEB7E81BF90B0FB6F894FEBF0FBEEDBF30
S11319700DB71EB70F5F1F4FCE018D579F4F0E94AB
S1131980F62728966EAD7FAD2897680F791FA701BB
S1131990C8010E94D331F801EE0DFF1D1082B80179
S11319A0C6010E94D71B0FB6F894BEBE0FBEADBED3
S11319B0B8C3F3E2EF16F10479F4B801CE0101964D
S11319C0C7D5CE0101960E94F627BC01CE018E5BDD
S11319D09F4F0E94D71B4EC024E2E216F10451F43B
S11319E0B801CE010196B4D5CE0101960E94B42768
S11319F0BC013BC036E2E316F10479F4B801CE0130
S1131A000196A6D5CE0101960E948E27682FCE019D
S1131A108E5B9F4F0E94E21B2DC085E2E816F10405
S1131A2081F4B801CE01019693D5CE0101960E94AE
S1131A30D027AB01BC01CE018E5B9F4F0E94EA1BF5
S1131A4019C092E0E916F104E9F4B801CE01019657
S1131A507FD5CE0101960E94F627FC01019000205B
S1131A60E9F73197BF01681B790BCE018E5B9F4F5D
S1131A700E949F1B61E2C80125DD81E4FE01EE5B4B
S1131A80FF4F4AC3E7E0EE16F10451F4B801CE016A
S1131A9001965ED561E2C80115DD8D8181B939C336
S1131AA0FBE0EF16F10451F4B801CE01019650D5D4
S1131AB061E2C80107DD8D8182B92BC32FE0E216F4
S1131AC0F10429F461E2C801FDDC60B16EC038E0C4
S1131AD0E316F10451F4B801CE01019639D561E25F
S1131AE0C801F0DC8D8184B914C389E0E816F104DF
S1131AF051F4B801CE0101962BD561E2C801E2DCB4
S1131B008D8187B906C39AE0E916F10451F4B8014E
S1131B10CE0101961DD561E2C801D4DC8D818AB95C
S1131B20F8C2ECE0EE16F10451F4B801CE010196CE
S1131B300FD561E2C801C6DC8D8185B9EAC2FDE03A
S1131B40EF16F10451F4B801CE01019601D561E21A
S1131B50C801B8DC8D8188B9DCC22EE0E216F1043C
S1131B6051F4B801CE010196F3D461E2C801AADCB4
S1131B708D818BB9CEC230E1E316F10429F461E220
S1131B80C801A0DC63B111C081E1E816F10429F4B5
S1131B9061E2C80197DC66B108C092E1E916F1047C
S1131BA031F461E2C8018EDC69B170E0AEC2EAE1F1
S1131BB0EE16F10451F461E2C80184DC80E4809300
S1131BC07C0087E880937A009EC2FCE1EF16F10462
S1131BD0B1F4B801CE010196BBD48D819E81181653
S1131BE0190634F48F3F91052CF08CE190E002C08B
S1131BF08FE090E0109289008093880019C02DE155
S1131C00E216F104C9F4B801CE010196A1D48D8184
S1131C109E811816190634F48F3F91052CF08CE13F
S1131C2090E002C08FE090E010928B0080938A00D5
S1131C3061E2C80147DC67C23BE1E316F104C9F580
S1131C40B801CE018E5B9F4F83D461E2C8013ADCB8
S1131C5027968FAD2797806480937C0086E69EE06C
S1131C600197F1F7000080917A00806480937A00F4
S1131C7080917A0086FDFCCF6091780070917900A4
S1131C80072E000C880B990B0E94992920E030EC58
S1131C904FE754E40E94FE2820E030E040EA50E49C
S1131CA00E944D2AAB01BC01CE0101960E94EA1BA1
S1131CB030C292E2E916F10409F5B801CE018E5B57
S1131CC09F4F46D461E2C801FDDB27968FAD27976D
S1131CD0806480937C00E6E6FEE03197F1F7000033
S1131CE080917A00806480937A0080917A0086FDE6
S1131CF0FCCF609178007091790007C2F3E1EF1690
S1131D00F10471F4B801CE01019622D461E2C80154
S1131D10D9DBCE0101960E948E270E94B601F3C141
S1131D2024E1E216F104C1F4B801CE018E5B9F4FA9
S1131D300FD46AE1C801C6DBB801CE01019608D40C
S1131D4061E2C801BFDB6D817E8128968EAD9FADB7
S1131D5028970E94EB01D7C135E1E316F10431F471
S1131D6061E2C801AFDB0E94E801CDC186E1E8165B
S1131D70F10491F4B801CE010196EAD361E2C801FD
S1131D80A1DBCE0101960E94F6270E942C1982E362
S1131D9093E00E942C19B7C197E1E916F10459F4B4
S1131DA061E2C8018FDB0E5D184F62E370E0C80189
S1131DB00E943819DCC0E8E1EE16F10471F4B801B0
S1131DC0CE018E5B9F4FC4D361E2C8017BDB2796B3
S1131DD08FAD27970E946C1996C1F9E1EF16F104B3
S1131DE031F461E2C8016EDB0E94541940C127E25C
S1131DF0E216F104D9F4780131E7E31A38EFF30A73
S1131E00B801CE010196A4D3CE0101960E94B42755
S1131E100E946C19F70180818A3119F46AE1C801C2
S1131E2051DBF7018081813259F702CFF8E2EF16D6
S1131E30F10441F5B801CE0101968AD3CE01019691
S1131E400E94B4277C0161E2C8013CDBC7010E9407
S1131E500A1AA70160E0CE0101960E94F21B00E07D
S1131E6010E00E151F050CF054C1C8010E94531A4E
S1131E70482F50E0B701CE0101960E9471280F5FF0
S1131E801F4FEFCF29E2E216F10481F4B801CE012D
S1131E908E5B9F4F5DD361E2C80114DBCE018E5B84
S1131EA09F4F0E94B4270E94531AE1C03AE2E316FE
S1131EB0F10431F461E2C80105DB0E945C1A23C11C
S1131EC080E2E816F10431F461E2C801FBDA0E9411
S1131ED07319E6C091E2E916F104C1F4B801CE0128
S1131EE0019636D38D819E818036E9E09E0729F4E0
S1131EF081E08093C5008FE706C08038954211F4D5
S1131F008FE501C087E08093C40092CE2FE1E216F2
S1131F10F10449F461E2C801D5DA8091C100806816
S1131F208093C100EFC035E3E316F10491F4B801E6
S1131F30CE0101960DD361E2C801C4DACE01019647
S1131F400E94F6270E94651A82E393E00E94651AB4
S1131F50DAC08BE2E816F10481F461E2C801B2DA76
S1131F600C5A184F62E370E0C8010E94711AB8015C
S1131F70CE0101960E94D71BCCC09CE2E916F10465
S1131F8071F4B801CE018E5B9F4FE2D261E2C801C9
S1131F9099DA27968FAD27970E94A51AB4C0EDE26F
S1131FA0EE16F10431F461E2C8018CDA0E948D1A54
S1131FB05EC0F1E3EF16F104D9F4780121E7E21AE7
S1131FC028EFF20AB801CE010196C2D2CE010196E1
S1131FD00E94B4270E94A51AF70180818A3119F45E
S1131FE06AE1C8016FDAF7018081813259F720CEA6
S1131FF0F2E3EF16F10441F5B801CE010196A8D23F
S1132000CE0101960E94B4277C0161E2C8015ADA2C
S1132010C7010E94431BA70160E0CE0101960E9404
S1132020F21B00E010E00E151F050CF072C0C80191
S11320300E948C1B482F50E0B701CE0101960E94EC
S113204071280F5F1F4FEFCF23E3E216F104A9F4C9
S1132050B801CE018E5B9F4F7BD261E2C80132DAB8
S1132060CE018E5B9F4F0E94B4270E948C1B682F69
S1132070CE0101960E94BA1B4CC034E3E316F1046E
S113208031F461E2C8011EDA0E94951B3CC08FE264
S1132090E816F10479F461E2C80114DA0E94AC1A7A
S11320A0009719F464E373E001C0BC01C6010E9407
S11320B0D71B37C090E3E916F104C1F4B801CE018F
S11320C0019646D28D819E818036E9E09E0729F4EF
S11320D081E08093CD008FE706C08038954211F4EB
S11320E08FE501C087E08093CC00A2CD2EE2E216FA
S11320F0F10449F461E2C801E5D98091C90080681E
S11321008093C900789460E070E0CE0101960E944B
S11321109F1B81E4FE013196D60101900D928A95B0
S1132120E1F7C6010FB6F894BEBE0FBEADBECD53E7
S1132130DF4F0FB6F894DEBF0FBECDBFDF91CF9156
S11321401F910F91FF90EF90DF90CF90BF90AF90D1
S11321500895CF92DF92EF92FF920F931F93CF9344
S1132160DF93CDB7DEB7C45CD1090FB6F894DEBFF8
S11321700FBECDBF7C018B016B0181E7C81A88EFCC
S1132180D80A82E4F601DE01119601900D928A9537
S1132190E1F78981833079F463E0C80193D9B80108
S11321A0CE018D5B9F4FD5DFBE016D5B7F4FC701B5
S11321B00E94082796C0813079F461E0C80182D971
S11321C0B801CE018D5B9F4FC4DFBE016D5B7F4FB5
S11321D0C7010E94492785C08E3079F46EE0C8019A
S11321E071D9B801CE018D5B9F4FB3DFBE016D5B2A
S11321F07F4FC7010E94872274C0853211F465E2C3
S113220047C0843211F464E243C08D30A9F56DE017
S1132210C80158D9F6018081803219F560E2C801FD
S113222051D9B801CE018D5B9F4F93DF2996CEAC77
S1132230DFAC299761E2C80145D9CE0102960E941C
S1132240F627AC01B801CE018C579F4F76D9A60171
S1132250BE016C577F4FCE018D5B9F4F0E943F287C
S113226037C0CE0102960E94F627AC01B801CE0118
S11322708D5B9F4F62D92CC08D3219F4C701D2DA1D
S113228030C0833211F463E203C08B3239F46BE261
S1132290C80118D981E4FE0132961EC0803261F46F
S11322A060E2C8010FD9B801CE018D5B9F4F50D1B8
S11322B061E2C80107D90CC065E373E0C8010E945C
S11322C02F0260E070E0CE018D5B9F4F0E949F1B48
S11322D081E4FE01ED5BFF4FD70101900D928A95D9
S11322E0E1F7C701CC53DF4F0FB6F894DEBF0FBE42
S11322F0CDBFDF91CF911F910F91FF90EF90DF90B1
S1132300CF900895CF92DF92EF92FF920F931F9395
S1132310CF93DF93CDB7DEB7C258D1090FB6F89487
S1132320DEBF0FBECDBF8C017B0113DF670181E7E8
S1132330C81A88EFD80AF6018081882391F1843085
S113234009F440C0873009F4B4C0883009F4C2C02D
S1132350893009F4D1C08F3009F489C0823109F47D
S113236097C0803109F461C0813109F46FC08230B3
S113237009F439C0843109F447C0833109F0D7C066
S113238063E1C7019FD8B701CE010196E2DEAE0139
S11323904F5F5F4FB801CE018E5B9F4F0E945B235E
S11323A0BCC060E0C7018ED8B701CE010196D1DE72
S11323B0AE014F5F5F4FB801CE018E5B9F4F0E940D
S11323C00C1EABC064E0C7017DD8B701CE010196F5
S11323D0C0DEAE014F5F5F4FB801CE018E5B9F4FF1
S11323E00E949F1E9AC062E0C7016CD8B701CE015B
S11323F00196AFDEAE014F5F5F4FB801CE018E5B39
S11324009F4F0E942D1F89C064E1C7015BD8B701AB
S1132410CE0101969EDEAE014F5F5F4FB801CE0143
S11324208E5B9F4F0E94F32378C060E1C7014AD8B6
S1132430B701CE0101968DDEAE014F5F5F4FB8014B
S1132440CE018E5B9F4F0E948C2467C061E1C7015F
S113245039D8B701CE0101967CDEAE014F5F5F4FE4
S1132460B801CE018E5B9F4F0E94102556C06FE0CD
S1132470C70128D8B701CE0101966BDEAE014F5FCC
S11324805F4FB801CE018E5B9F4F0E94B92545C0B6
S113249062E1C70117D8B701CE0101965ADEAE0139
S11324A04F5F5F4FB801CE018E5B9F4F0E94622643
S11324B034C067E0C70106D8B701CE01019649DEF2
S11324C0AE014F5F5F4FB801CE018E5B9F4F0E94FC
S11324D0A02023C068E0C7010E94620AB701CE01B0
S11324E0019637DEAE014F5F5F4FB801CE018E5BC0
S11324F09F4F0E94F62111C069E0C7010E94620A41
S1132500B701CE01019625DEAE014F5F5F4FB801E2
S1132510CE018E5B9F4F0E94D02281E4FE01EE5BD0
S1132520FF4FD80101900D928A95E1F704CFC801BD
S1132530CE57DF4F0FB6F894DEBF0FBECDBFDF918D
S1132540CF911F910F91FF90EF90DF90CF9008955E
S1132550CF92DF92EF92FF920F931F93CF93DF936B
S1132560CDB7DEB7C258D1090FB6F894DEBF0FBE9F
S1132570CDBF8C017B01C6DE670181E7C81A88EFF5
S1132580D80AF60180818330E9F0813069F189311C
S113259009F43CC0853009F44BC0863009F063C0AF
S11325A066E0C7010E94620AB701CE010196AADE65
S11325B0AE014F5F5F4FB801CE018E5B9F4F0E940B
S11325C0202047C063E0C7010E94620AB701CE0120
S11325D0019698DEAE014F5F5F4FB801CE018E5B6E
S11325E09F4F0E942A1C35C061E0C7010E94620A05
S11325F0B701CE01019686DEAE014F5F5F4FB80191
S1132600CE018E5B9F4F0E947F1D23C069E1C701ED
S11326100E94620AB701CE01019674DEAE014F5FDB
S11326205F4FB801CE018E5B9F4F0E94A02011C066
S113263065E0C7010E94620AB701CE01019662DE1D
S1132640AE014F5F5F4FB801CE018E5B9F4F0E947A
S1132650A01F81E4FE01EE5BFF4FD80101900D92B3
S11326608A95E1F78ECFC801CE57DF4F0FB6F894A5
S1132670DEBF0FBECDBFDF91CF911F910F91FF90B1
S1132680EF90DF90CF900895BF92CF92DF92EF92B8
S1132690FF920F931F93CF93DF93CDB7DEB7C85D3F
S11326A0D1090FB6F894DEBF0FBECDBF8C017C01FB
S11326B081E7E81A88EFF80AF7018081893239F452
S11326C069E2C8010E94620ABB24B39401C0B12C20
S11326D06801F0E7CF1AF8EFDF0AC6010E94F62777
S11326E0BC01CE018D579F4F0E94F0316DE0C801AF
S11326F00E94620AB11097C0F70180818032D9F537
S113270060E2C8010E94620AB801CE01019620DF8E
S1132710ED80FE8061E2C8010E94620A63E1C801A3
S11327200E94620AAE014D575F4FB801CE018E5B25
S11327309F4F0E949D0AB801CE01019609DF2196A0
S11327408FAD2197811109C04D815E81B701CE0102
S11327508E5B9F4F0E947128B3C0833009F0B0C0D4
S11327602F81388549855A85B701CE018E5B9F4FED
S11327700E948028A5C0833139F563E1C8010E9415
S1132780620AB801CE010196E3DE8DB79EB781548B
S113279091090FB6F8949EBF0FBE8DBFADB7BEB7FB
S11327A0119681E4FE01319601900D928A95E1F72C
S11327B0BE016D577F4FC8010E94040B0FB6F894F9
S11327C0DEBF0FBECDBF7CC0F801E657F84F1182C3
S11327D0108260E070E0C8010E941C02F801E25718
S11327E0F84F8083B801CE0189569F4F0E94EB08B1
S11327F082E4FE01E956FF4FD70101900D928A95BC
S1132800E1F7B801CE010196A3DEF80180818823A7
S113281009F456C0CE0101960E94F6271DD582E325
S113282093E01AD54DC060E2C8010E94620AB80163
S1132830CE0101968DDEED80FE8061E2C8010E942A
S1132840620A6CE2C8010E94620AC6010E94F6276D
S1132850BC01CE018E5B9F4F0E94F03164E473E0B3
S1132860CE018E5B9F4F0E945304A701892B11F464
S113287060E001C063E0CE010196B4D78DB79EB786
S1132880815491090FB6F8949EBF0FBE8DBFADB7AA
S1132890BEB7119681E4FE01319601900D928A959E
S11328A0E1F7BE016D577F4FC8010E94040B0FB6BC
S11328B0F894DEBF0FBECDBF6DE0C8010E94620A6E
S11328C0C852DF4F0FB6F894DEBF0FBECDBFDF9105
S11328D0CF911F910F91FF90EF90DF90CF90BF9019
S11328E008950F931F93CF93DF93CDB7DEB7C154F1
S11328F0D1090FB6F894DEBF0FBECDBF8C01FC0129
S1132900E157F84F80818D3011F0893219F4C801F4
S1132910BBDE2EC08D3231F4B801CE0101960E9487
S1132920120C26C0873219F4C801B7D221C08E32E6
S113293019F4C80129D01CC08A3019F4C8012ED258
S113294017C0823319F4C80194D112C0833281F4C0
S1132950B801CE010196FCDDF8018081882341F0A5
S1132960CE0101960E94F62777D482E393E074D4D3
S1132970CF5BDF4F0FB6F894DEBF0FBECDBFDF9144
S1132980CF911F910F9108956F927F928F929F9292
S1132990AF92BF92CF92DF92EF92FF920F931F9369
S11329A0CF93DF93CDB7DEB7C85DD1090FB6F894E6
S11329B0DEBF0FBECDBF8C015C0186E7A81A88EF8D
S11329C0B80AF501C080D180F3E0CF0ED11C6EE2CD
S11329D0C8010E94620AC8018057984F0E94F627D6
S11329E0BC01CE018D579F4F0E94F031C8014CDECF
S11329F06FE2C8010E94620AC8018157984F7C01A6
S1132A00380192E7691A98EF790AAE014D575F4F82
S1132A10B801CE018E5B9F4F0E949D0A28968EAC12
S1132A209FAC2897B801CE01019692DD8D819E81DD
S1132A308815990524F4CC24C394D12C74C0F701CF
S1132A408081803359F460E3C8010E94620AB801AE
S1132A50CE0101967DDD8D809E8003C08824839401
S1132A60912CF7018081813359F0C8013ADFF701D5
S1132A7080818731B1F767E1C8010E94620AF1CF12
S1132A80AE014D575F4FB801CE018E5B9F4F0E9440
S1132A909D0A28966EAD7FAD2897680D791DCE01ED
S1132AA001964DD68DB79EB7815491090FB6F8940F
S1132AB09EBF0FBE8DBFADB7BEB7119681E4FE01B8
S1132AC0319601900D928A95E1F7BE016D577F4FC3
S1132AD0C8010E94040BF501D182C0820FB6F8949C
S1132AE0DEBF0FBECDBFB601C8010E941C02F301B8
S1132AF08083B801CE0189569F4F0E94EB0882E47F
S1132B00FE01E956FF4FD70101900D928A95E1F736
S1132B10F70180818F3269F76FE2C8010E94620A6F
S1132B2074CF8133B9F0B801CE0189569F4F0E940A
S1132B30EB0882E4FE01E956FF4FD70101900D92A4
S1132B408A95E1F7F70180818E3259F7FFEFCF1AAA
S1132B50DF0AE9CF81E0C81AD10829F761E3C80187
S1132B600E94620AF70180818D3021F46DE0C80172
S1132B700E94620AC852DF4F0FB6F894DEBF0FBE40
S1132B80CDBFDF91CF911F910F91FF90EF90DF9018
S1132B90CF90BF90AF909F908F907F906F9008954B
S1132BA0EF92FF920F931F93CF93DF93CDB7DEB7CE
S1132BB0C254D1090FB6F894DEBF0FBECDBF8C014D
S1132BC0FC01E857F84F71836083329611821082BA
S1132BD0FB0101900020E9F73197E61BF70BDC01BC
S1132BE0A457B84FED93FC9360E070E00E941C0280
S1132BF0F801E257F84F8083780181E7E81A88EFFB
S1132C00F80AB801CE0101960E94EB0882E4FE01A5
S1132C103196D70101900D928A95E1F7C801CE5BF8
S1132C20DF4F0FB6F894DEBF0FBECDBFDF91CF915B
S1132C301F910F91FF90EF9054CE0F931F93CF935A
S1132C40DF93EC014EDE8E010157184FF8018081AD
S1132C50823249F0873121F467E1CE010E94620A91
S1132C60CE013FDEF3CFDF91CF911F910F910895F5
S1132C70E4CF8F929F92AF92BF92CF92DF92EF9266
S1132C80FF920F931F93CF93DF93CDB7DEB7C65553
S1132C90D1090FB6F894DEBF0FBECDBF8C0162E33D
S1132CA00E94620A480180E7881A88EF980AC401E2
S1132CB00E94F627BC01CE0101960E94F031680102
S1132CC0E6E7CE1AE8EFDE0AF601A080B1806DE0F7
S1132CD0C8010E94620AF601118210827801F1E7AC
S1132CE0EF1AF8EFFF0AB801CE0145960E94EB08EF
S1132CF082E4FE017596D70101900D928A95E1F761
S1132D00F7018081833379F7C4010E94F627BC015F
S1132D10CE0101960E94E731892B29F763E3C801AC
S1132D200E94620AF7018081883141F0C801D9DD2F
S1132D30F70180818731B1F767E1F1CF68E1C8011C
S1132D400E94620AF601B182A082B501C8010E9404
S1132D501C02F801E257F84F8083B801CE01459672
S1132D600E94EB0882E4FE017596D70101900D9252
S1132D708A95E1F7CA5ADF4F0FB6F894DEBF0FBE4B
S1132D80CDBFDF91CF911F910F91FF90EF90DF9016
S1132D90CF90BF90AF909F908F900895EF92FF9245
S1132DA00F931F93CF93DF93CDB7DEB7C358D109E9
S1132DB00FB6F894DEBF0FBECDBF8C016AE00E944F
S1132DC0620AB801CE010196C3DBCE0101960E94CE
S1132DD08E2798012157384F79016CE0882331F10F
S1132DE0C8010E94620AC8017CDD67E1C8010E9433
S1132DF0620AF70180818B3009F041C06BE0C801A1
S1132E000E94620AF70180818731A9F1B801CE01DD
S1132E108E5B9F4F0E94EB0882E4FE01EE5BFF4F46
S1132E20D70101900D928A95E1F7ECCFC8010E9479
S1132E30620AF7018081873181F0B801CE018E5B8F
S1132E409F4F0E94EB0882E4FE01EE5BFF4FD70127
S1132E5001900D928A95E1F7ECCF67E1C8010E94D9
S1132E60620AF70180818B3051F46BE0C8010E9443
S1132E70620AC80136DD67E1C8010E94620ACD57C3
S1132E80DF4F0FB6F894DEBF0FBECDBFDF91CF91F9
S1132E901F910F91FF90EF9008958F929F92AF92A0
S1132EA0BF92CF92DF92EF92FF920F931F93CF9333
S1132EB0DF93CDB7DEB7C358D1090FB6F894DEBFA0
S1132EC00FBECDBF8C0167E20E94620A580186E7FB
S1132ED0A81A88EFB80AF501C080D180F1E0CF1AB2
S1132EE0D10860E2C8010E94620AC8018157984F64
S1132EF07C01480192E7891A98EF990AB801CE013A
S1132F00019626DBCE0101960E948E27882381F14B
S1132F1061E2C8010E94620A67E1C8010E94620A74
S1132F20F7018081883239F0C801DBDCF701808148
S1132F308731B1F7F1CFF501D182C082B601C80162
S1132F400E941C02F4018083B801CE018E5B9F4F66
S1132F500E94EB0882E4FE01EE5BFF4FD701019073
S1132F600D928A95E1F760E2C8010E94620AC6CF19
S1132F70F7018081813241F561E2C8010E94620A51
S1132F80CC24C394D12CB801CE018E5B9F4F0E94F8
S1132F90EB0882E4FE01EE5BFF4FD70101900D9236
S1132FA08A95E1F7F7018081873221F4FFEFCF1A88
S1132FB0DF0AE9CF883239F781E0C81AD10819F756
S1132FC068E2C8010E94620ACD57DF4F0FB6F89439
S1132FD0DEBF0FBECDBFDF91CF911F910F91FF9048
S1132FE0EF90DF90CF90BF90AF909F908F90089517
S1132FF0CF93DF93CDB7DEB7C350D8400FB6F89464
S1133000DEBF0FBECDBF0FB6F894A89580916000C7
S1133010886180936000109260000FBE82EA809302
S113302080008DE1809381001092850010928400CD
S113303082E0809387008FEC809386001092890051
S113304086E18093880010928B0080938A0028E1A7
S11330502093C10091E09093C5008FE78093C40052
S11330602093C9009093CD008093CC008FEF8AB950
S11330708BB91AD18111FDCF8FEF87B918B8809120
S11330805C0390915D039C012F5F3F4F30935D0380
S113309020935C0344970CF507D18093580388234D
S11330A071F391E0909359038A33B9F4CE010196F8
S11330B00E94F30180E00E94B6018CE493E0CCD03E
S11330C062E370E0CE018E52984FD2D0BE016E52B0
S11330D0784FCE01019664DDF0CF809159038823A7
S11330E099F180E4F82E80915803882321F1F99B0B
S11330F002C0F8B8FCCF80915A0390915B036091B1
S11331005803805090400E94493480915A03909112
S11331105B03019690935B0380935A038AE0DCD0AF
S113312002E310E0C1D0809358038111DCCF015039
S11331301109C1F7D8CF80915A0390915B0360E0E5
S1133140805090400E94493460E070E0CE010196C6
S11331500E948B0BCE0101968BDD90E880E62FEF69
S11331603FE746E1215030404040E1F700C0000015
S113317098B92FEF3FE746E1215030404040E1F756
S113318000C0000088B9EBCF1F920F920FB60F92C8
S113319011240BB60F922F933F934F938F939F93CA
S11331A0EF93FF938091CC039091CD039C012F5F0B
S11331B03F4F3093CD032093CC034091C600FC01D4
S11331C0E253FC4F40832436310524F01092CD03A2
S11331D01092CC03FF91EF919F918F914F913F916A
S11331E02F910F900BBE0F900FBE0F901F9018954C
S11331F01F920F920FB60F9211240BB60F922F93BA
S11332003F934F938F939F93EF93FF938091620328
S1133210909163039C012F5F3F4F3093630320938E
S113322062034091CE00FC01EC59FC4F40832436EC
S1133230310524F01092630310926203FF91EF9121
S11332409F918F914F913F912F910F900BBE0F90B3
S11332500FBE0F901F901895FC018091C00085FF50
S1133260FCCF81918093C60080818111F6CF0895AF
S1133270FC0120E030E04091C00047FFFCCF4091CA
S1133280C60041934A3039F04D3029F02F5F3F4F4B
S11332902617370780F3FC01E20FF31F26173707C1
S11332A009F431971082089580E090E02091C000E5
S11332B027FD0CC001968536910511F480E0089530
S11332C0E6E6FEE03197F1F70000F0CF8436910591
S11332D0A9F38091C60008959091C00095FFFCCF9A
S11332E08093C60008950F931F93CF93DF930091AB
S11332F0CA031091CB03C801FC01E253FC4F408187
S11333009C012F5F3F4F4A3071F04D3061F0C9018D
S11333102436310514F080E090E00817190761F7AE
S113332080E090E072C08017910734F4801B910B09
S1133330EC01CC59DF4F03C0EC01C01BD10B253687
S113334031052CF43093CB032093CA0304C01092AC
S1133350CB031092CA038091CA039091CB03FC0162
S1133360E253FC4F20812A3069F401968536910599
S11333702CF49093CB038093CA030FC01092CB0319
S11333801092CA038091CA039091CB0385369105AC
S113339024F01092CB031092CA038091C803909139
S11333A0C903009711F00E94F82ECE0101960E94E5
S11333B0602E9093C9038093C80380E090E020912D
S11333C0C8033091C9038C179D0794F4F801E253A4
S11333D0FC4F4081D901A80FB91F4C930F5F1F4FB9
S11333E010820436110514F000E010E00196E7CFD6
S11333F0CE01D7FF02C080E090E0E901C80FD91FD9
S113340018828091C8039091C903DF91CF911F91D5
S11334100F910895CF93DF93EC018091CA039091AB
S1133420CB038536910524F01092CB031092CA0386
S11334308091C8039091C903009711F00E94F82E5F
S1133440CE0101960E94602E9093C9038093C80315
S113345080E090E08C179D071CF5E091C803F09183
S1133460C903E80FF91F2091CA033091CB03A901C6
S11334704F5F5F4F5093CB034093CA03D901A253CC
S1133480BC4F2C9120832091CA033091CB03253665
S1133490310524F01092CB031092CA030196DACFBF
S11334A0DF91CF9108952091C8033091C903820F11
S11334B0931FFC01808108951092CD031092CC03D8
S11334C01092CB031092CA030895FC018091C800A6
S11334D085FFFCCF81918093CE0080818111F6CF4E
S11334E00895FC0120E030E04091C80047FFFCCF84
S11334F04091CE0041934A3039F04D3029F02F5F8E
S11335003F4F2617370780F3FC01E20FF31F2617FE
S1133510370709F431971082089580E090E02091F4
S1133520C80027FD0CC001968536910511F480E092
S11335300895E6E6FEE03197F1F70000F0CF843617
S11335409105A9F38091CE0008959091C80095FF4C
S1133550FCCF8093CE0008950F931F93CF93DF93F6
S11335600091600310916103C801FC01EC59FC4F08
S113357040819C012F5F3F4F4A3071F04D3061F024
S1133580C9012436310514F080E090E008171907CA
S113359061F780E090E072C08017910734F4801BDB
S11335A0910BEC01CC59DF4F03C0EC01C01BD10BD4
S11335B0253631052CF4309361032093600304C055
S11335C010926103109260038091600390916103F3
S11335D0FC01EC59FC4F20812A3069F401968536B0
S11335E091052CF490936103809360030FC01092B3
S11335F061031092600380916003909161038536AA
S1133600910524F0109261031092600380915E038F
S113361090915F03009711F00E94F82ECE0101965D
S11336200E94602E90935F0380935E0380E090E09D
S113363020915E0330915F038C179D0794F4F80189
S1133640EC59FC4F4081D901A80FB91F4C930F5F6F
S11336501F4F10820436110514F000E010E00196AB
S1133660E7CFCE01D7FF02C080E090E0E901C80FA8
S1133670D91F188280915E0390915F03DF91CF91EF
S11336801F910F910895CF93DF93EC018091600314
S1133690909161038536910524F010926103109294
S11336A0600380915E0390915F03009711F00E9484
S11336B0F82ECE0101960E94602E90935F038093B2
S11336C05E0380E090E08C179D071CF5E0915E039B
S11336D0F0915F03E80FF91F2091600330916103BB
S11336E0A9014F5F5F4F5093610340936003D90179
S11336F0AC59BC4F2C91208320916003309161031D
S11337002536310524F0109261031092600301966E
S1133710DACFDF91CF91089520915E0330915F035A
S1133720820F931FFC01808108951092630310920D
S11337306203109261031092600308950895CF9379
S1133740DF93EC016C837D837F936F9380E593E03B
S11337509F938F93CE010A969F938F930E94463234
S11337601FAE0F900F900F900F900F900F90DF915E
S1133770CF910895CF93DF93EC01862F90E09D8342
S11337808C831F926F9380E593E09F938F93CE0178
S11337900A969F938F930E9446321FAE0F900F900C
S11337A00F900F900F900F90DF91CF910895CF93CA
S11337B0DF93EC010A960E94F03181E08FAFDF9134
S11337C0CF910895FC01E05CFF4F608322E0FC018F
S11337D027AF0895FC01468357836087718723E0F0
S11337E027AF08950F931F93CF93DF93EC018A01C2
S11337F06FAF81E08CAF611111C0CA01880F991FAE
S11338000E94602E88839983FC0180E090E08017F9
S11338109107DCF4119211920196F9CF6330A9F467
S1133820CA01880F991F880F991F0E94602E8A83EE
S11338309B83FC0180E090E08017910734F411929F
S11338401192119211920196F7CFDF91CF911F91AE
S11338500F9108955F926F927F928F929F92AF9291
S1133860BF92CF92DF92EF92FF920F931F93CF9369
S1133870DF93CDB7DEB7C55AD1090FB6F894DEBFD2
S11338800FBECDBF6C018B017A01FB0157ACFA016D
S1133890B7ACF1E05F1629F1BF12A7C0CE018C5876
S11338A09F4F5C01FB013A963F01CA010A964C0105
S11338B05110EFC0FB0185818F9384818F9380E544
S11338C093E09F938F93BF92AF920E944632B301CD
S11338D0C5010E94F031B401C5010E94DC31B5017B
S11338E024C0FB013A964F01B11031C0FA01858121
S11338F08F9384818F9380E593E09F938F938E01C0
S11339000E5B1F4F1F930F930E944632B401CE01EA
S11339108C589F4F0E94F031B801CE018C589F4FB4
S11339200E94DC31BE016C587F4FCE0101963FDF0F
S113393081E4FE013196D60101900D928A95E1F75A
S11339400F900F900F900F900F900F90C0C0F3E066
S1133950BF1234C0FA0181858F9380858F9387814C
S11339608F9386818F9383E593E09F938F938E014A
S11339700E5B1F4F1F930F930E944632B401CE017A
S11339808C589F4F0E94F031B801CE018C589F4F44
S11339900E94DC31BE016C587F4FCE01019607DFD7
S11339A081E4FE013196D60101900D928A95E1F7EA
S11339B00FB6F894DEBF0FBECDBF89C0B801665FF5
S11339C07F4FCE018C589F4F0E94F031B701665F44
S11339D07F4FCE018C589F4F0E94DC31BE016C5842
S11339E07F4FCE010196E3DE4BC093E059120DC028
S11339F0FA01B9121CC02681378140855185FB012B
S1133A0066817781808591852AC0FB0164817581F7
S1133A10F3E0BF122DC0072E000C880B990B0E94F7
S1133A209929F701268137814085518518C0648121
S1133A307581072E000C880B990B0E9499299B0114
S1133A40AC01F80166817781808591850E94962872
S1133A50F601668377838087918757AE38C00E94CA
S1133A609628F6016683778380879187B7AE2FC047
S1133A70FA0184819581680F791FCE0101965FDE7A
S1133A8081E4FE013196D60101900D928A95E1F709
S1133A901EC0F3E05F1292CFF80181858F93808579
S1133AA08F9387818F9386818F9383E593E09F9390
S1133AB08F93BF92AF920E944632B301C5010E9418
S1133AC0F031B401C5010E94DC31B50166CFC601F5
S1133AD0CB55DF4F0FB6F894DEBF0FBECDBFDF91DD
S1133AE0CF911F910F91FF90EF90DF90CF90BF90F7
S1133AF0AF909F908F907F906F905F900895AF925A
S1133B00BF92CF92DF92EF92FF920F931F93CF93C6
S1133B10DF93CDB7DEB7C154D1090FB6F894DEBF39
S1133B200FBECDBF8C017B016A01FB01A7ACF1E0A4
S1133B30AF1629F0FA01B7ACF1E0BF1207C0B70124
S1133B40665F7F4FCE01019632DE4BC083E0A81240
S1133B500DC0FA01B8121CC02681378140855185F9
S1133B60FB0166817781808591852AC0FB01648190
S1133B707581F3E0BF122DC0072E000C880B990B42
S1133B800E949929F601268137814085518518C004
S1133B9064817581072E000C880B990B0E9499296A
S1133BA09B01AC01F70166817781808591850E9434
S1133BB09528F8016683778380879187A7AE19C01B
S1133BC00E949528F8016683778380879187B7AE32
S1133BD010C0FA0184819581681B790BCE0101968E
S1133BE0AEDD81E4FE013196D80101900D928A95F3
S1133BF0E1F7C801CF5BDF4F0FB6F894DEBF0FBE0D
S1133C00CDBFDF91CF911F910F91FF90EF90DF9087
S1133C10CF90BF90AF900895AF92BF92CF92DF92B2
S1133C20EF92FF920F931F93CF93DF93CDB7DEB73D
S1133C30C154D1090FB6F894DEBF0FBECDBF8C01BD
S1133C407B016A01FB01A7ACF1E0AF1629F0FA0190
S1133C50B7ACF1E0BF1207C0B701665F7F4FCE017A
S1133C600196A5DD51C083E0A8120DC0FA01B81277
S1133C701CC02681378140855185FB01668177818F
S1133C80808591852AC0FB0164817581F3E0BF12B0
S1133C902DC0072E000C880B990B0E949929F60160
S1133CA0268137814085518518C064817581072E2E
S1133CB0000C880B990B0E9499299B01AC01F70118
S1133CC066817781808591850E944D2AF8016683FB
S1133CD0778380879187A7AE1FC00E944D2AF80181
S1133CE06683778380879187B7AE16C0FA012481F3
S1133CF03581629FC001639F900D729F900D1124C6
S1133D00BC01CE0101961BDD81E4FE013196D80190
S1133D1001900D928A95E1F7C801CF5BDF4F0FB692
S1133D20F894DEBF0FBECDBFDF91CF911F910F91ED
S1133D30FF90EF90DF90CF90BF90AF900895AF9237
S1133D40BF92CF92DF92EF92FF920F931F93CF9384
S1133D50DF93CDB7DEB7C154D1090FB6F894DEBFF7
S1133D600FBECDBF8C017B016A01FB01A7ACF1E062
S1133D70AF1629F0FA01B7ACF1E0BF1207C0B701E2
S1133D80665F7F4FCE01019612DD4CC023E0A21284
S1133D900DC0FA01B2121CC02681378140855185BD
S1133DA0FB0166817781808591852AC0FB0184812E
S1133DB09581F3E0BF122DC0BC01990F880B990BBC
S1133DC00E949929F601268137814085518518C0C2
S1133DD064817581072E000C880B990B0E94992928
S1133DE09B01AC01F70166817781808591850E94F2
S1133DF0FE28F8016683778380879187A7AE1AC06F
S1133E000E94FE28F8016683778380879187B7AE86
S1133E1011C0FA0124813581B9010E94392ECE01E5
S1133E2001968DDC81E4FE013196D80101900D925A
S1133E308A95E1F7C801CF5BDF4F0FB6F894DEBF78
S1133E400FBECDBFDF91CF911F910F91FF90EF90E7
S1133E50DF90CF90BF90AF900895CF92DF92EF9212
S1133E60FF920F931F93CF93DF93CDB7DEB7C15467
S1133E70D1090FB6F894DEBF0FBECDBF8C01FB0194
S1133E807A0197AD913029F0DA01DF968C91813077
S1133E9039F4BF01665F7F4FCE01019688DC37C0DD
S1133EA0933051F4833069F46681778180859185FC
S1133EB00E9466296B0113C0C480D5808330D9F475
S1133EC00EC066817781808591850E946629D7011D
S1133ED014962D913C911597CB01B90112C0F701AD
S1133EE066817781808591850E946629AB01BC013A
S1133EF0C601BA0106C0DA0114966D917C9115973A
S1133F00C6010E94392EBC01CE01019618DC81E461
S1133F10FE013196D80101900D928A95E1F7C8010E
S1133F20CF5BDF4F0FB6F894DEBF0FBECDBFDF917E
S1133F30CF911F910F91FF90EF90DF90CF90089554
S1133F408F929F92AF92BF92CF92DF92EF92FF92A5
S1133F500F931F93CF93DF93CDB7DEB7C154D1092D
S1133F600FB6F894DEBF0FBECDBF8C01FB016A0112
S1133F7097AD913029F0DA01DF968C91813039F4D4
S1133F80BF01665F7F4FCE01019611DC3CC09330C8
S1133F9099F48330F1F466817781808591850E945C
S1133FA066294B015C01F6016681778180859185E4
S1133FB00E946629C40114C0E480F5808330B9F4FA
S1133FC0FA0166817781808591850E946629C701FF
S1133FD007C066817781808591850E94662908C023
S1133FE002C0880F991F6A95E2F7BC0109C0B701A6
S1133FF0D60114960C9002C0660F771F0A94E2F75C
S1134000CE0101969CDB81E4FE013196D80101903A
S11340100D928A95E1F7C801CF5BDF4F0FB6F89494
S1134020DEBF0FBECDBFDF91CF911F910F91FF90E7
S1134030EF90DF90CF90BF90AF909F908F900895B6
S11340408F929F92AF92BF92CF92DF92EF92FF92A4
S11340500F931F93CF93DF93CDB7DEB7C154D1092C
S11340600FB6F894DEBF0FBECDBF8C01FB016A0111
S113407097AD913029F0DA01DF968C91813039F4D3
S1134080BF01665F7F4FCE01019691DB3CC0933048
S113409099F48330F1F466817781808591850E945B
S11340A066294B015C01F6016681778180859185E3
S11340B00E946629C40114C0E480F5808330B9F4F9
S11340C0FA0166817781808591850E946629C701FE
S11340D007C066817781808591850E94662908C022
S11340E002C0959587956A95E2F7BC0109C0B701AE
S11340F0D60114960C9002C0759567950A94E2F760
S1134100CE0101961CDB81E4FE013196D8010190B9
S11341100D928A95E1F7C801CF5BDF4F0FB6F89493
S1134120DEBF0FBECDBFDF91CF911F910F91FF90E6
S1134130EF90DF90CF90BF90AF909F908F900895B5
S11341408F929F92AF92BF92CF92DF92EF92FF92A3
S11341500F931F93CF93DF93CDB7DEB7C55AD10921
S11341600FB6F894DEBF0FBECDBF7C01FB018A0100
S113417097AD923029F0DA01DF968C91823081F488
S1134180E05CFF4F8081882321F0F801E05CFF4F61
S1134190808192E0F70197AFE05CFF4F808311C10B
S11341A0913031F1813009F0ADC09E012C583F4F60
S11341B06901DB011A965D019A01265F3F4F4901AF
S11341C09111E2C085818F9384818F9380E593E080
S11341D09F938F93DF92CF920E944632B501C6011E
S11341E00E94F031B401C6010E94DC31B60124C042
S11341F0DB011A966D01811131C0FA0185818F931B
S113420084818F9380E593E09F938F938E010E5B5F
S11342101F4F1F930F930E944632B601CE018C5854
S11342209F4F0E94F031B801CE018C589F4F0E94DD
S1134230DC31BE016C587F4FCE010196B8DA81E4BF
S1134240FE013196D70101900D928A95E1F70F9006
S11342500F900F900F900F900F90B3C08330D9F54B
S1134260DA0119968C9119978F9318968C91189757
S11342708F9317968C9117978F9316968C918F9393
S113428083E593E09F938F938E010E5B1F4F1F93E3
S11342900F930E944632B601CE018C589F4F0E9464
S11342A0F031B801CE018C589F4F0E94DC31BE0121
S11342B06C587F4FCE0101967ADA81E4FE01319683
S11342C0D70101900D928A95E1F70FB6F894DEBFFD
S11342D00FBECDBF76C0BF01665F7F4FCE018C5845
S11342E09F4F0E94F031B801665F7F4FCE018C581A
S11342F09F4F0E94DC31BE016C587F4FCE01019666
S113430056DA39C09330A1F4833009F56681778198
S113431080859185DBD74B015C01D80116966D91A0
S11343207D918D919C911997D1D76821792120C0D5
S1134330C480D5808330B1F4DA0116966D917D91F5
S11343408D919C911997C2D76C217D2111C06681F2
S1134350778180859185BAD7F801248135816223DC
S1134360732306C0FA0184819581B60168237923F9
S1134370CE010196E4D981E4FE013196D701019082
S11343800D928A95E1F71DC0933009F0A4CF818581
S11343908F9380858F9387818F9386818F9383E515
S11343A093E09F938F93DF92CF920E944632B501A0
S11343B0C6010E94F031B401C6010E94DC31B6018D
S11343C079CFC701CB55DF4F0FB6F894DEBF0FBED0
S11343D0CDBFDF91CF911F910F91FF90EF90DF90B0
S11343E0CF90BF90AF909F908F9008958F929F929F
S11343F0AF92BF92CF92DF92EF92FF920F931F93EF
S1134400CF93DF93CDB7DEB7C154D1090FB6F8947B
S1134410DEBF0FBECDBF8C01FB017A0197AD923098
S113442029F0DA01DF968C91823081F4E05CFF4F51
S11344308081811104C0F701E05CFF4F808192E02C
S1134440F80197AFE05CFF4F80834CC0913011F0CE
S1134450813039F4BF01665F7F4FCE010196A7D941
S113446039C09330A1F4833009F566817781808562
S113447091852CD74B015C01D70116966D917D91E6
S11344808D919C91199722D76829792920C0C480DD
S1134490D5808330B1F4DA0116966D917D918D91BA
S11344A09C91199713D76C297D2911C06681778156
S11344B0808591850BD7F70124813581622B732B7D
S11344C006C0FA0184819581B601682B792BCE014F
S11344D0019635D981E4FE013196D80101900D92FF
S11344E08A95E1F7C801CF5BDF4F0FB6F894DEBFC2
S11344F00FBECDBFDF91CF911F910F91FF90EF9031
S1134500DF90CF90BF90AF909F908F9008950F93BE
S11345101F93CF93DF93CDB7DEB7C154D1090FB644
S1134520F894DEBF0FBECDBF8C01FB0187AD823096
S113453059F4E05CFF4F208191E09227F80187AFA6
S1134540E05CFF4F90831FC0813031F4665F7F4F82
S1134550CE0101962CD90FC0833031F46681778166
S113456080859185B3D602C064817581609570950C
S1134570CE010196E4D881E4FE013196D801019080
S11345800D928A95E1F7C801CF5BDF4F0FB6F8941F
S1134590DEBF0FBECDBFDF91CF911F910F91089564
S11345A08F929F92AF92BF92CF92DF92EF92FF923F
S11345B00F931F93CF93DF93CDB7DEB7C154D109C7
S11345C00FB6F894DEBF0FBECDBF7C01FB018A019C
S11345D097AD923029F0DA01DF968C91823051F454
S11345E0E05CFF4FD801A05CBF4F60818C916827CD
S11345F070E041C0913011F0813039F4BF01665F41
S11346007F4FCE010196D3D839C0933091F48330D3
S1134610E9F4668177818085918558D64B015C01E8
S1134620F801668177818085918550D66825792542
S113463022C0C480D5808330B1F4FA0166817781C9
S11346408085918543D66C257D2515C0668177814B
S1134650808591853BD6D80114962D913C91159770
S11346606227732708C0DA0114968D919C911597DF
S1134670B60168277927CE01019661D881E4FE014D
S11346803196D70101900D928A95E1F7C701CF5B6E
S1134690DF4F0FB6F894DEBF0FBECDBFDF91CF91D1
S11346A01F910F91FF90EF90DF90CF90BF90AF904C
S11346B09F908F900895BF92CF92DF92EF92FF92D6
S11346C00F931F93CF93DF938C017B01EA01FB01CE
S11346D097AD9801205C3F4F6901923019F08FAD7E
S11346E0823059F4F701E05CFF4FC05CDF4F81E09A
S11346F020819881291366C066C0913099F4813075
S113470049F5BA01665F7F4FC7010A960E94E731F7
S113471022E0F80127AF21E0892B09F020E0F6011F
S1134720208356C09330B1F48330D1F4BB24B394C6
S11347302E813F8148855985FB016681778180857B
S1134740918558D58111B12C82E0F80187AFF6012B
S1134750B0823EC0F70164817581833069F518C069
S11347606C817D81072E000C880B990BE2D59B018F
S1134770AC01C1E0F70166817781808591853AD5E6
S11347808111C0E082E0F80187AFF601C08320C048
S1134790072E000C880B990BCCD5FF24F3942E81A3
S11347A03F814885598526D58111F12C82E0F80195
S11347B087AFF601F0820CC081E02C813D81621745
S11347C0730709F080E092E0F80197AFF601808367
S11347D0C801DF91CF911F910F91FF90EF90DF906F
S11347E0CF90BF900895BF92CF92DF92EF92FF9245
S11347F00F931F93CF93DF938C017B01EA01FB019D
S113480097AD9801205C3F4F6901923019F08FAD4C
S1134810823049F4F701E05CFF4FC05CDF4F9081C8
S11348208881892769C0913099F4813051F5BA01A2
S1134830665F7F4FC7010A960E94E73122E0F801C4
S113484027AF21E0892B09F420E0F601208359C029
S11348509330B9F48330D9F4BB24B3942E813F81CF
S113486048855985FB016681778180859185C2D40D
S1134870811101C0B12C82E0F80187AFF601B0824A
S113488040C0F70164817581833079F519C06C816A
S11348907D81072E000C880B990B4BD59B01AC0135
S11348A0C1E0F7016681778180859185A3D4811168
S11348B001C0C0E082E0F80187AFF601C08321C0E7
S11348C0072E000C880B990B34D5FF24F3942E810A
S11348D03F81488559858ED4811101C0F12C82E035
S11348E0F80187AFF601F0820CC081E02C813D8194
S11348F06217730709F480E092E0F80197AFF601BC
S11349008083C801DF91CF911F910F91FF90EF90A9
S1134910DF90CF90BF900895CF92DF92EF92FF92F5
S11349200F931F93CF93DF937C018B01EA01DB018B
S1134930DF969C91DF97F701E05CFF4F6F019130A8
S1134940A9F08FAD813049F5911110C02A96FE016E
S113495001900020E9F73197EC1BFD0B14962D9183
S11349603C9115972E173F078CF00FC0D8011A966B
S1134970FD0101900020E9F73197EA1BFB0B81E070
S11349802C813D81E217F3070CF080E092E0D7011F
S1134990DF969C93F601808339C0933039F48330D9
S11349A0A1F42E813F814885598518C0FB0164819B
S11349B075818330F9F4072E000C880B990BB9D458
S11349C02E813F814885598510C06C817D81072ED9
S11349D0000C880B990BADD49B01AC01D801169641
S11349E06D917D918D919C91199704D4881F88278E
S11349F0881F07C081E02C813D81621773070CF08A
S1134A0080E092E0F70197AFD6018C93C701DF9164
S1134A10CF911F910F91FF90EF90DF90CF90089569
S1134A20BF92CF92DF92EF92FF920F931F93CF9397
S1134A30DF937C018B01EA01DB01DF969C91DF9718
S1134A40F701E05CFF4F6F019130A9F08FAD813029
S1134A5049F5911110C02A96FE0101900020E9F752
S1134A603197EC1BFD0B14962D913C911597E21791
S1134A70F3078CF40FC0D8011A96FD0101900020B1
S1134A80E9F73197EA1BFB0B81E02C813D812E175E
S1134A903F070CF480E092E0D701DF969C93F60187
S1134AA080835CC09330C9F48330E9F4BB24B394AD
S1134AB02E813F8148855985DB0116966D917D9144
S1134AC08D919C91199796D318160CF4B12C82E011
S1134AD0F70187AFD601BC9241C0FB0164817581A7
S1134AE0833081F51BC06C817D81072E000C880BFF
S1134AF0990B1FD49B01AC01C1E0D80116966D91AE
S1134B007D918D919C91199775D318160CF4C0E082
S1134B1082E0F70187AFD601CC9320C0072E000CAA
S1134B20880B990B06D411E02E813F814885598565
S1134B3061D318160CF410E082E0F70187AFD601B8
S1134B401C930CC081E02C813D81261737070CF49F
S1134B5080E092E0F70197AFD6018C93C701DF9113
S1134B60CF911F910F91FF90EF90DF90CF90BF9066
S1134B700895BF92CF92DF92EF92FF920F931F930B
S1134B80CF93DF937C018B01EA01DB01DF969C91DB
S1134B90DF97F701E05CFF4F6F019130A9F08FAD13
S1134BA0813049F5911110C02A96FE010190002030
S1134BB0E9F73197EC1BFD0B14962D913C91159759
S1134BC0E217F3078CF00FC0D8011A96FD0101908B
S1134BD00020E9F73197EA1BFB0B81E02C813D8132
S1134BE02E173F070CF080E092E0D701DF969C93EC
S1134BF0F60180835CC09330C9F48330E9F4BB24AC
S1134C00B3942E813F8148855985DB0116966D91B9
S1134C107D918D919C9119973CD418160CF0B12C70
S1134C2082E0F70187AFD601BC9241C0FB016481E9
S1134C307581833081F51BC06C817D81072E000C4A
S1134C40880B990B76D39B01AC01C1E0D801169671
S1134C506D917D918D919C9119971BD418160CF030
S1134C60C0E082E0F70187AFD601CC9320C0072EC5
S1134C70000C880B990B5DD311E02E813F81488590
S1134C80598507D418160CF010E082E0F70187AFBD
S1134C90D6011C930CC081E02C813D812617370777
S1134CA00CF080E092E0F70197AFD6018C93C70136
S1134CB0DF91CF911F910F91FF90EF90DF90CF90F4
S1134CC0BF900895BF92CF92DF92EF92FF920F931D
S1134CD01F93CF93DF937C018B01EA01DB01DF9605
S1134CE09C91DF97F701E05CFF4F6F019130A9F0D1
S1134CF08FAD813049F5911110C02A96FE010190C3
S1134D000020E9F73197EC1BFD0B14962D913C9193
S1134D1015972E173F078CF40FC0D8011A96FD0182
S1134D2001900020E9F73197EA1BFB0B81E02C810D
S1134D303D81E217F3070CF480E092E0D701DF969F
S1134D409C93F601808359C09330C1F48330E1F41D
S1134D50BB24B3942E813F8148855985DB01169687
S1134D606D917D918D919C91199793D387FDB12C71
S1134D7082E0F70187AFD601BC923FC0FB0164819A
S1134D807581833071F51AC06C817D81072E000C0A
S1134D90880B990BCED29B01AC01C1E0D8011696C9
S1134DA06D917D918D919C91199773D387FDC0E08E
S1134DB082E0F70187AFD601CC931FC0072E000C09
S1134DC0880B990BB6D211E02E813F814885598515
S1134DD060D387FD10E082E0F70187AFD6011C9312
S1134DE00CC081E02C813D81621773070CF480E0D4
S1134DF092E0F70197AFD6018C93C701DF91CF9171
S1134E001F910F91FF90EF90DF90CF90BF90089586
S1134E100F931F93CF93DF93CDB7DEB7C154D1095E
S1134E200FB6F894DEBF0FBECDBF8C01FB0187AD7A
S1134E30813039F4665F7F4FCE0101960E94D71B03
S1134E4013C0833059F44681578160857185F80118
S1134E50468357836087718787AF0EC064817581ED
S1134E60CE0101960E949F1B81E4FE013196D80178
S1134E7001900D928A95E1F7C801CF5BDF4F0FB621
S1134E80F894DEBF0FBECDBFDF91CF911F910F917C
S1134E9008950F931F93CF93DF93CDB7DEB7C1541B
S1134EA0D1090FB6F894DEBF0FBECDBF8C01FB0154
S1134EB087AD813039F4665F7F4FCE0101960E9441
S1134EC0D71B17C0833061F4468157816085718593
S1134ED07058F801468357836087718787AF11C084
S1134EE064817581719561957109CE0101960E9465
S1134EF09F1B81E4FE013196D80101900D928A95A1
S1134F00E1F7C801CF5BDF4F0FB6F894DEBF0FBEE9
S1134F10CDBFDF91CF911F910F910895CF93FC01E5
S1134F2027AD2130E9F0223021F4E05CFF4FC0814D
S1134F3018C0233069F4FC01C1E020E030E0A9018D
S1134F40668177818085918555D181110AC006C01B
S1134F50C1E0FC0184819581892B19F4C0E001C072
S1134F60C1E08C2FCF910895FC0127AD213019F4B5
S1134F700A960C94AF30FC01223031F4E05CFF4F10
S1134F806081862F90E00895233039F4668177811B
S1134F90808591859BD1CB01089584819581089565
S1134FA0FC0127AD213019F40A960C94AC30FC01B5
S1134FB0223049F4E05CFF4F8081811112C060E02F
S1134FC070E0CB010895233029F4668177818085D0
S1134FD09185089564817581072E000C880B990BC7
S1134FE0A8C160E070E080E89FE30895CF93DF9369
S1134FF0FC0127AD213011F40A963EC0FC01223099
S113500041F4E05CFF4F8081811134C08FE892E06D
S113501033C0EC012A962330C9F481858F938085AF
S11350208F9387818F9386818F9383E593E09F93FA
S11350308F93DF93CF930E944632EDB7FEB7389635
S11350400FB6F894FEBF0FBEEDBF12C085818F93DB
S113505084818F9380E593E09F938F93DF93CF9325
S11350600E9446320F900F900F900F900F900F9068
S1135070CE0102C08AE892E0DF91CF910895CF93E8
S1135080DF93EC01FB0184AD882311F187AD81111D
S11350900AC0440F551F0190F081E02DE40FF51F65
S11350A06081718117C0833099F4440F551F440FF8
S11350B0551F0280F381E02DE40FF51F40815181DB
S11350C0628173814E835F83688779878FAF05C060
S11350D06FEF7FEFCE010E949F1BCE01DF91CF9136
S11350E00895DC01DC962C91DC97222341F0660FB5
S11350F0771FED91FC91E60FF71F518340830895CC
S1135100DC01DC96EC91DC97EE2371F0660F771FDF
S1135110660F771F1296ED91FC911397E60FF71F18
S1135120208331834283538308955058BB27AA2791
S11351300ED075C166D130F06BD120F031F49F3FB1
S113514011F41EF45BC10EF4E095E7FB51C1E92FA5
S113515077D180F3BA17620773078407950718F0AD
S113516071F49EF58FC10EF4E0950B2EBA2FA02D8D
S11351700B01B90190010C01CA01A0011124FF2700
S1135180591B99F0593F50F4503E68F11A16F040FB
S1135190A22F232F342F4427585FF3CF46953795FA
S11351A02795A795F0405395C9F77EF41F16BA0BBF
S11351B0620B730B840BBAF09150A1F0FF0FBB1F6D
S11351C0661F771F881FC2F70EC0BA0F621F731FB6
S11351D0841F48F4879577956795B795F7959E3F13
S11351E008F0B3CF9395880F08F09927EE0F9795A1
S11351F087950895D9D008F481E008950CD00FC1A3
S113520007D140F0FED030F021F45F3F19F0F0C038
S1135210511139C1F3C014D198F39923C9F355231B
S1135220B1F3951B550BBB27AA2762177307840795
S113523038F09F5F5F4F220F331F441FAA1FA9F34B
S113524033D00E2E3AF0E0E830D091505040E6953D
S1135250001CCAF729D0FE2F27D0660F771F881F9E
S1135260BB1F261737074807AB07B0E809F0BB0B8D
S1135270802DBF01FF2793585F4F2AF09E3F5105B1
S113528068F0B6C000C15F3FECF3983EDCF386954E
S113529077956795B795F7959F5FC9F7880F911D27
S11352A09695879597F90895E1E0660F771F881F13
S11352B0BB1F621773078407BA0720F0621B730BC6
S11352C0840BBA0BEE1F88F7E095089504D0689418
S11352D0B111D9C00895BCD088F09F5790F0B92F70
S11352E09927B751A0F0D1F0660F771F881F991F37
S11352F01AF0BA95C9F712C0B13081F0C3D0B1E049
S11353000895C0C0672F782F8827B85F39F0B93F58
S1135310CCF3869577956795B395D9F73EF4909538
S11353208095709561957F4F8F4F9F4F0895E894B6
S113533009C097FB3EF490958095709561957F4FD9
S11353408F4F9F4F9923A9F0F92F96E9BB27939587
S1135350F695879577956795B795F111F8CFFAF497
S1135360BB0F11F460FF1BC06F5F7F4F8F4F9F4FC8
S113537016C0882311F096E911C0772321F09EE826
S1135380872F762F05C0662371F096E8862F70E08C
S113539060E02AF09A95660F771F881FDAF7880F66
S11353A09695879597F90895990F0008550FAA0BBC
S11353B0E0E8FEEF16161706E807F907C0F0121624
S11353C01306E407F50798F0621B730B840B950B27
S11353D039F40A2661F0232B242B252B21F408957C
S11353E00A2609F4A140A6958FEF811D811D089519
S11353F097F99F6780E870E060E008959FEF80EC84
S1135400089500240A941616170618060906089526
S113541000240A9412161306140605060895092E8C
S11354200394000C11F4882352F0BB0F40F4BF2BFB
S113543011F460FF04C06F5F7F4F8F4F9F4F08953B
S113544057FD9058440F551F59F05F3F71F0479531
S1135450880F97FB991F61F09F3F79F08795089516
S1135460121613061406551FF2CF4695F1DF08C035
S1135470161617061806991FF1CF86957105610552
S113548008940895E894BB2766277727CB0197F9FA
S113549008958ADF08F48FEF08950BD0C0CFB1DFF1
S11354A028F0B6DF18F0952309F0A2CFA7CF112476
S11354B0EACFC6DFA0F3959FD1F3950F50E0551FB7
S11354C0629FF001729FBB27F00DB11D639FAA2755
S11354D0F00DB11DAA1F649F6627B00DA11D661FA4
S11354E0829F2227B00DA11D621F739FB00DA11DC5
S11354F0621F839FA00D611D221F749F3327A00D7F
S1135500611D231F849F600D211D822F762F6A2F1A
S113551011249F5750408AF0E1F088234AF0EE0F9F
S1135520FF1FBB1F661F771F881F91505040A9F7AC
S11355309E3F510570F05CCFA6CF5F3FECF3983EE1
S1135540DCF3869577956795B795F795E7959F5F13
S1135550C1F7FE2B880F911D9695879597F90895AD
S11355602F923F924F925F926F927F928F929F926F
S1135570AF92BF92CF92DF92EF92FF920F931F935D
S1135580CF93DF93CDB7DEB760970FB6F894DEBF45
S11355900FBECDBF7C011B016A01FC01178216827C
S11355A0838181FF2AC39E012F5F3F4F3901F70199
S11355B09381F10193FD859193FF81911F018823CC
S11355C009F417C3853239F493FD859193FF8191D2
S11355D01F01853231F4B70190E01CD756016501F3
S11355E0E6CF10E0512C912CFFE1F915D8F08B3265
S11355F079F038F4803279F08332A1F4F92DF06136
S11356002EC08D3261F0803369F4292D21602DC0C4
S1135610392D3260932E892D8460982E2AC0E92D6D
S1135620E86015C097FC2DC020ED280F2A3088F4BF
S113563096FE06C03AE0139F200D1124122F19C0C4
S11356408AE0589E200D1124522EE92DE0629E2EF0
S113565010C08E3231F496FCCCC2F92DF0649F2E2A
S113566008C08C3621F4292D2068922E02C0883679
S113567041F4F10193FD859193FF81911F01811103
S1135680B3CF9BEB980F933020F4992D9061805EFB
S113569007C09BE9980F933008F059C1992D9F7E5C
S11356A096FF16E09F73992E853619F49064992E0F
S11356B008C0863621F4392F3068932E02C01111A8
S11356C0115097FE07C01C3350F444244394410EF8
S11356D027E00BC0183038F027E017E005C027E0BA
S11356E09CE3492E02C0212F412C560184E0A80ED0
S11356F0B11CF6016081718182819381042DA30123
S11357004BD56C01F981FC87F0FF02C0F3FF06C0A2
S113571091FC06C092FE06C000E205C00DE203C083
S11357200BE201C000E08C858C7019F0011143C2BA
S113573080C297FE10C04C0CFC85F4FF04C08A8123
S1135740813309F44A94141474F528E0241578F587
S113575088E0482E2CC096FC2AC0812F90E08C153E
S11357609D059CF03CEFC3163FEFD30674F0892DE2
S11357708068982E0AC0E2E0F0E0EC0FFD1FE10F14
S1135780F11D8081803319F411501111F4CF97FE6B
S11357900EC044244394410E812F90E0C816D906CC
S11357A02CF41C1904C04424439401C010E097FE57
S11357B006C01C141D0434F4C601019605C085E01E
S11357C090E002C081E090E001110196112331F0D4
S11357D0212F30E02F5F3F4F820F931F252D30E0A4
S11357E08217930714F4581A01C0512C892D89701B
S11357F041F4552031F0B70180E290E00BD65A9481
S1135800F8CF002321F0B701802F90E003D693FC5A
S113581008C0552031F0B70180E390E0FBD55A94DD
S1135820F8CF97FE4AC04601D7FE02C0812C912CC6
S1135830C60188199909F301E80FF91FFE87ED875E
S1135840960124193109388B2F87012F10E0119507
S1135850019511093FEF8316930621F4B7018EE2F7
S113586090E0D8D5C814D9044CF08F859889881550
S1135870990524F4ED85FE85818101C080E3F1E082
S11358808F1A91082D853E852F5F3F4F3E872D87C8
S11358908016910624F0B70190E0BCD5DBCFC81484
S11358A0D90441F49A81963320F4953319F43C8554
S11358B034FF81E3B70190E048C08A81813319F055
S11358C09C859F7E9C87B70190E0A4D5111105C0EB
S11358D094FC16C085E690E015C0B7018EE290E016
S11358E099D51E5F82E001E0080FF301E80FF11D76
S11358F08081B70190E08ED5802F0113F4CFE8CFDB
S113590085E490E0B70186D5D7FC06C0C114D10464
S113591041F4EC85E4FF05C0D194C194D1088DE233
S113592001C08BE2B70190E075D580E32AE0C2168E
S1135930D1042CF08F5FFAE0CF1AD108F7CFB7016A
S113594090E068D5B701C601C09664D549C18336D5
S113595031F0833779F0833509F052C01FC0560106
S113596032E0A30EB11CF6018081898301E010E0CE
S1135970630111C05601F2E0AF0EB11CF601C08004
S1135980D18096FE03C0612F70E002C06FEF7FEFFD
S1135990C6012DD58C01F92DFF7713C0560122E0E5
S11359A0A20EB11CF601C080D18096FE03C0612F07
S11359B070E002C06FEF7FEFC601EAD48C01F92DCD
S11359C0F0689F2EF3FD18C0852D90E00817190785
S11359D098F4B70180E290E01DD55A94F5CFF60112
S11359E097FC859197FE81916F01B70190E012D5E4
S11359F051105A94015011090115110581F7F0C095
S1135A00843611F0893659F5560197FE09C024E011
S1135A10A20EB11CF60160817181828193810AC05A
S1135A20F2E0AF0EB11CF60160817181072E000C0B
S1135A30880B990BF92DFF769F2E97FF09C090953F
S1135A408095709561957F4F8F4F9F4FF0689F2E83
S1135A502AE030E0A30148D5C82EC6183EC0092D5F
S1135A60853721F40F7E2AE030E01DC0097F8F3690
S1135A7091F018F4883559F0BCC0803719F0883794
S1135A8011F0B7C0006104FF09C0046007C094FEB0
S1135A9008C0066006C028E030E005C020E130E020
S1135AA002C020E132E0560107FF09C084E0A80EDD
S1135AB0B11CF601608171818281938108C0F2E09A
S1135AC0AF0EB11CF6016081718180E090E0A3010A
S1135AD00BD5C82EC6180F77902E96FE0BC0092D35
S1135AE00E7FC11650F494FE0AC092FC08C0092D22
S1135AF00E7E05C0DC2C092D03C0DC2C01C0D12E88
S1135B0004FF0DC0FE01EC0DF11D8081803311F402
S1135B10097E09C002FF06C0D394D39404C0802F29
S1135B20867809F0D39403FD10C000FF06C01C2D35
S1135B30D51478F4150D1D190CC0D51450F4B70103
S1135B4080E290E067D4D394F8CFD51410F45D18B4
S1135B5001C0512C04FF0FC0B70180E390E05AD478
S1135B6002FF16C001FD03C088E790E002C088E58B
S1135B7090E0B7010CC0802F867851F001FF02C07D
S1135B808BE201C080E207FD8DE2B70190E042D4D0
S1135B90C11630F4B70180E390E03CD41150F8CF43
S1135BA0CA94F301EC0DF11D8081B70190E032D469
S1135BB0C110F6CF15C0F4E0F51550F584E0581A7D
S1135BC093FE1EC0011125C02C8523FF27C00CE8BD
S1135BD010E0392D3071932EF8018491811121C088
S1135BE0552009F4FCCCB70180E290E013D45A9418
S1135BF0F7CFF7018681978123C08FEF9FEF20C0F5
S1135C00B70180E290E006D45A945110F9CFDACF6C
S1135C10512CB701802F90E0FDD3D6CF00E910E0DE
S1135C20D8CF91108052B70190E0F4D30F5F1F4F8B
S1135C30D3CF23E0251510F483E0C1CF512CC4CF7A
S1135C4060960FB6F894DEBF0FBECDBFDF91CF9143
S1135C501F910F91FF90EF90DF90CF90BF90AF9086
S1135C609F908F907F906F905F904F903F902F9078
S1135C70089597FB072E16F4009406D077FD08D0FC
S1135C800BD007FC05D03EF4909581959F4F089565
S1135C90709561957F4F0895AA1BBB1B51E107C006
S1135CA0AA1FBB1FA617B70710F0A61BB70B881FA8
S1135CB0991F5A95A9F780959095BC01CD01089537
S1135CC00F931F93CF93DF938230910510F482E0FA
S1135CD090E0E0913404F091350420E030E0A0E05D
S1135CE0B0E0309719F14081518102811381481746
